:100000000C948B030C94A8030C94A8030C94962ACC
:100010000C94A8030C94A8030C94A8030C94A803B4
:100020000C94A8030C94A8030C9446320C94183337
:100030000C941C2D0C94A8030C94A8030C94A803F6
:100040000C94A8030C94A8030C94A8030C94A80384
:100050000C94A8030C94C02D0C94A8030C94A80332
:100060000C94A8030C94A8030C94A8030C94A80364
:100070000C94A8030C94A8030C94A8030C94A80354
:100080000C94A8030C94A8030C94A8030C94A80344
:100090000C94A8030C94A8030C94A8030C94A80334
:1000A0000C94A8030C94A8030C94A803990799072F
:1000B000C707C7072C084A08670967095508F008E9
:1000C000030903098533AC33A434AC33A434F833C7
:1000D0001B34A434723481343A002B0037003600CC
:1000E000330013001C0039610400120008001800DE
:1000F0000C00E200380014000D000E001B00000090
:1001000000000000E100A85D2C002A000F000B0099
:1001100006000A000900340016001100170015003F
:10012000070028621D0019001A00100005000000D9
:1001300000000000E000A95D2C002B0014001A0054
:1001400008001500170039610400160007000900B7
:100150000A00E2001D001B00060019000500000057
:1001600000000000E100A85D2C002A00130012002E
:100170000C0018001C00340033000F000E000D00AE
:100180000B00286238003700360010001100000014
:1001900000000000E100A95D2C00290037002400C8
:1001A0002500260000002A0036002100220023003E
:1001B0002700280006531E001F002000F100000049
:1001C000000000000100A85D2C004C0000000000B1
:1001D000520000000000F100ED004F0051005000FF
:1001E000AE00F000EE00EF00F200000000000000A2
:1001F00000000000E300A95D28002102370236025A
:100200002D001F022202221427026400640224022D
:10021000351434023802300030022F021F1400005F
:1002200000000000E100A85D2A002A001E022E0046
:1002300030142F1420142F002D022E022602250226
:100240002302200235023500321434141E1400003B
:10025000000000000000A95D2C00005CAB5D000008
:10026000000000000153C35CC65CC85CCA5CCC5C87
:100270000553C45CC75CC95CCB5CCD5C000000006E
:1002800000000000E100A85D2C0000003E003D00E1
:100290003C003B003A004400430042004100400063
:1002A0003F00C55C000000000000000000000000EE
:1002B00000000000E300A95D2C0001000100010026
:1002C0000100010001000100010001000100010026
:1002D0000100010001000100010001000100000017
:1002E0000000000001000100010001000100010008
:1002F000520001000100010001004F0051005000B8
:1003000001000100010001000100010001000000E6
:10031000000000000100010001002B003700360042
:10032000330013001C00396104001200080018009B
:100330000C00E200380014000D000E001B0000004D
:1003400000000000065307512C002A000F000B008C
:1003500006000A00090034001600110017001500FD
:10036000070028621D0019001A0010000500000097
:1003700000000000E000A95D2C002A000F000B0027
:1003800006000A00090034001600110017001500CD
:100390000700E0001D0019001A0010000500000011
:1003A00000000000010001002C002A000F000B00DB
:1003B00006000A000900340016001100170015009D
:1003C000070028621D0019001A0010000500000037
:1003D00000000000E000A95D2C000000000000000B
:1003E00000002A2B28000000000000000000000090
:1003F000000000000029000000002C1E34202122F3
:1004000024342627252E362D3738271E1F2021225B
:10041000232425263333362E37381F0405060708D4
:10042000090A0B0C0D0E0F101112131415161718C4
:10043000191A1B1C1D2F3130232D35040506070802
:10044000090A0B0C0D0E0F101112131415161718A4
:10045000191A1B1C1D2F3130354C00000000000004
:10046000000000000000000000000000000000008C
:1004700000000000000000000000000000007E0FEF
:1004800000D4FFFFFFC70000007800010101010157
:10049000010101010202020202020202020303033D
:1004A000030303030304040404040404050505050D
:1004B00005060606060607070707070808080809CD
:1004C0000909090A0A0A0B0B0B0C0C0C0D0D0D0E79
:1004D0000E0E0F0F0F10101111111212131314140E
:1004E000151516161717181819191A1A1B1B1C1D83
:1004F0001D1E1E1F202021222223242425262627DC
:100500002829292A2B2C2D2D2E2F3031323233340D
:1005100035363738393A3B3C3D3E3F404142434413
:1005200045464748494A4C4D4E4F505153545556F5
:1005300058595A5B5D5E5F616264656668696B6CA1
:100540006D6F7072737577787A7B7D7E808283851C
:1005500087888A8C8E8F91939596989A9C9EA0A25C
:10056000A3A5A7A9ABADAFB1B3B5B7BABCBEC0C266
:10057000C4C6C9CBCDCFD1D4D6D8DBDDDFE2E4E72A
:10058000E9EBEEF0F3F5F8FAFDFF00AE00AF00DAAC
:100590000281FFD9F1DB20A4A62EAF00A0C000A1EC
:1005A000C800AED580A81FD300408D1420000C03D6
:1005B00043006F0072006E006500000010036600CB
:1005C0006F006F007300740061006E000000040390
:1005D000090409023B00020100A0FA09040000011D
:1005E00003010100092111010001224000070581DA
:1005F00003080001090401000103000000092111A2
:1006000001000122B600070582032000011201004B
:10061000020000000853460100010001020001052C
:10062000010902A10185020901A100050919012999
:100630000815002501950875018102050109300999
:10064000311581257F9502750881060938158125A8
:100650007F950175088106050C0A38021581257FF2
:10066000950175088106C0C005010980A1018503B7
:1006700019012AB700150126B700950175108100F0
:10068000C0050C0901A101850419012AA002150168
:1006900026A002950175108100C005010906A1017F
:1006A0008506050719E029E715002501950875015C
:1006B00081020507190029EF1500250195F0750144
:1006C0008102050819012905950575019102950119
:1006D00075039101C005010906A101050719E0296B
:1006E000E7150025019508750181029501750881BE
:1006F000010507190029FF150026FF00950675085A
:1007000081000508190129059505750191029501DA
:1007100075039101C00011241FBECFEFDAE0DEBFE8
:10072000CDBF12E0A0E0B1E0E2E8FCE602C0059037
:100730000D92A03CB107D9F727E0A0ECB2E001C0D0
:100740001D92AA37B207E1F70E9444190C943F3674
:100750000C94000081E00E9463220C94012D80E043
:100760000E9463220C94002DCF93DF93D62FC42FC9
:100770000E94940A882351F08D2F0E94940A8823A6
:1007800029F08C2FDF91CF910C94B40A8C2FDF913C
:10079000CF910C94D50A0895CF93FB018A3A2DE5A9
:1007A000920749F158F4883A2DE5920781F0893A89
:1007B0009D4509F051C0C28183E00BC08B3A2DE505
:1007C000920709F441C08C3A9D4501F145C0C281B0
:1007D00082E0CC2341F00E94B40A44E063E082E06E
:1007E0000E94B4030EC00E94D50A44E063E082E098
:1007F0000E94B40332C0C28184E0CC2321F00E9465
:10080000B40AC0E02AC00E94D50A27C0C281CC2306
:1008100051F00E947D2D9093C3028093C20286EE18
:100820000E946306EECF86EE0E94B9068091C20256
:100830009091C3020E94952D8639910570F488ED40
:1008400090E00E94D20509C0C281CC2329F00E9409
:100850008F1C0E949E2201C0C1E08C2FCF91089571
:1008600081E008950C94CC0308950C9434041F93F4
:10087000CF93DF9300D000D01F92CDB7DEB749836E
:100880005A836B833091C50289819A81311114C0DA
:10089000662359F0222349F00E94AB0B182F682FD2
:1008A00089819A810E94520B03C00E947E0B182FEF
:1008B00069817A81812F04C00E94AB0B69817A81A2
:1008C0000F900F900F900F900F90DF91CF911F918D
:1008D0000C94EC12FC01262F4081518162817381BE
:1008E00084810C94370481E00895CF93DF93EC0169
:1008F00060E00E946A04BE01DF91CF910C94350440
:100900000C9491140C948F1408950E9433070E9444
:1009100084042FEF84E39CE0215080409040E1F775
:1009200000C000000C94E62D0F931F93CF93DF932C
:100930008C0161E00E946A04EC01B8010E9432045B
:10094000882309F444C0B801CE010E94922888236C
:10095000F1F1B801CE010E94A6268823C1F1B801A9
:10096000CE010E94EE27882391F1B801CE010E94AA
:10097000CC23882361F1F8018281882309F1CB35EA
:100980008DE5D807C1F050F4C115FCE5DF0781F013
:10099000CF3DDC45A9F40E94E21019C0CC35EDE54D
:1009A000DE0761F0CD35DD4559F40E94251008C001
:1009B0000E9485040CC00E942E1002C00E943110BB
:1009C000C801DF91CF911F910F910C94300480E00A
:1009D000DF91CF911F910F9108950E94AA030E9469
:1009E00064210E94E60581E00E9463220C944C265B
:1009F0000E94E90580E00E9463220C94AF03DF921D
:100A0000EF92FF920F931F93CF93DF93E82FF0E0C5
:100A1000E652FC4FD490282F26952695269530E057
:100A2000F901E658FB4F0491877010E0082E02C0D0
:100A3000159507950A94E2F701701127F901E65917
:100A4000FB4FE490F12C082E02C0F594E7940A9431
:100A5000E2F791E0E922FF24F901E65AFB4FC49145
:100A6000D0E002C0D595C7958A95E2F7C170DD2721
:100A70000115110519F081EE0E946306E114F104DD
:100A800019F086EE0E9463068D2D0E940407EF2860
:100A900019F086EE0E94B906012B19F081EE0E9432
:100AA000B906CD2B51F08CE2DF91CF911F910F91C0
:100AB000FF90EF90DF900C940407DF91CF911F918E
:100AC0000F91FF90EF90DF900895EF92FF920F93B8
:100AD0001F93CF93DF938C01F62E8AE0E82EF80166
:100AE0008491882309F457C0813009F042C0E8019D
:100AF0002196FE018491813031F42196FE0184918A
:100B00000E94040739C0823039F4E8012296FE01C0
:100B100084910E94630630C0833039F4E801229644
:100B2000FE0184910E94B90627C0843029F5E801AE
:100B30002296FE01249180E090E030E020533109BC
:100B40002A30310560F4E89EA001E99E500D112481
:100B5000C901840F951F2196FE012491EECF0097C5
:100B600059F0EFE9FFE03197F1F700C0000001977D
:100B7000F6CF0E94FF04E8018E010F5F1F4F8F2DFB
:100B8000882309F4ACCFEFE9FFE03197F1F700C01B
:100B900000008150F5CFDF91CF911F910F91FF9011
:100BA000EF90089560E00C94650508950C94D505C8
:100BB00081E008950C94D8050895CF93C82F0E9422
:100BC000D6058C2F0E94DA05CF91089580E00C9411
:100BD000DD050E94C12B0C94DD050E94C12B909174
:100BE000C402891721F08093C4020C94DD05089596
:100BF000CF93DF93CDB7DEB72B970FB6F894DEBF58
:100C00000FBECDBF942F4F83252F588769877A87D2
:100C10008B874A855B85452B31F02F3F31F481E08E
:100C20009F3F19F403C081E001C080E080FD09C04E
:100C30008091C6029091C70201969093C70280935B
:100C4000C602898581110E94710F9E012F5F3F4F5F
:100C500086E0F90111928A95E9F785E0FE01379661
:100C6000D90101900D928A95E1F789819A814C8191
:100C70005D81452B31F09F3F31F491E08F3F19F4B6
:100C800003C091E001C090E090FF09C049815A8102
:100C90006B817C818D819E810E94920E05C0C9016D
:100CA0000E9473048111F2CF2B960FB6F894DEBF29
:100CB0000FBECDBFDF91CF910895FC01808191815E
:100CC0000E94ED0B0895CF93882309F450C0C82FDC
:100CD0008CEF8C0F813AD0F46C2F8091D8019091D9
:100CE000D9010E943E2C882349F06C2F8091D801B5
:100CF0009091D9010E94C92C0E94930F6C2F809172
:100D0000D8019091D9010E94BE2C0CC080E28C0FBA
:100D1000883058F4C77081E001C0880FCA95EAF79F
:100D20000E94540FCF910C94930FEBE5EC0FE3303E
:100D300040F4F0E0E159FD4F808190E0CF910C94B8
:100D4000FC2BE8E5EC0FE73150F4F0E0EE0FFF1F6D
:100D5000EF5BFD4F80819181CF910C94122CCD3EA1
:100D600030F08C2F0E94C819CF910C94721ACF9139
:100D70000895882389F19CEF980F913A40F4682FE9
:100D80008091D8019091D9010E94C92C0DC090E2A8
:100D9000980F983058F4877091E001C0990F8A95A8
:100DA000EAF7892F0E945A0F0C94930F9BE5980F36
:100DB000933020F480E090E00C94FC2B98E5980FA1
:100DC000973120F480E090E00C94122C8D3E20F0BE
:100DD0000E941F1A0C94721A08951F93CF93DF93E9
:100DE000182FEB010E946306209741F08FE99FE0E6
:100DF0000197F1F700C000002197F6CF812FDF9116
:100E0000CF911F910C94B906893319F060E070E01E
:100E100002C060E570E00C94ED06882321F00E948A
:100E2000540F0C94930F0895882321F00E945A0FB9
:100E30000C94930F089580E090E00E94FC2B80E0DA
:100E400090E00E94122C0E94710F0E94930F0E944A
:100E5000131B0C94721A8091D8019091D9010E94B1
:100E6000D42C0C941B070E94610F0C942B079295B5
:100E70009F70963079F010F4925001C09A509230E1
:100E800068F4803F69F018F4883E40F409C0843F5C
:100E900029F406C0883E20F0813F11F080E00895DB
:100EA00081E00895FC01808191810E94ED0B0E94F8
:100EB000370708958F929F92AF92BF92CF92DF92A1
:100EC000EF92FF920F931F93CF93DF936C01C62F86
:100ED000172FFC01D281058102950F700E944A0FE5
:100EE0008823B9F0DD23A9F0812F807F803421F0A1
:100EF00080E28C0F883068F08091790482FD09C00F
:100F000082E00E94F30F0E944A0F91E0E82EE9264A
:100F100001C0E12CB12EB2942FE0B2228B2D90E0D3
:100F20008C30910508F0D3C1FC01EA5AFF4F0C94B4
:100F30005335912F9F70812F807FF92E19F0F294F5
:100F400090EFF922DD2399F0FF2009F4ACC180E293
:100F50008C0F883010F0C11104C08F2D0E94540FE7
:100F600003C08F2D0E94640F0E94930F9CC18C2F91
:100F70000E94B906FF2009F4AAC180E28C0F8830D4
:100F800050F1CC2341F18F2D0E946A0F27C0912F81
:100F90009F70812F807FF92E803219F0F29480EFBC
:100FA000F822CC2319F0C130A1F140C0809179041E
:100FB00082FF17C0DD2349F0FF2029F08F2D0E940A
:100FC000540F0E94930F80E06FC180E00E94B90629
:100FD000FF2009F47CC18F2D0E945A0F0E94930FAD
:100FE00076C1DD2371F0002341F0013031F40E941D
:100FF000740F8F290E947C0F6AC10E94740F8F2981
:101000000EC0002319F0013009F461C10E94890F5C
:101010001FC0DD2339F0063008F059C18F2D0E9422
:101020000D0755C1053008F052C112C0DD2319F07B
:101030000023A1F338C1002359F0C93309F044C19A
:10104000FFEF27EE83E0F15020408040E1F73AC106
:101050008F2D0E9414073BC1812F86958695837042
:1010600019F0813061F033C1DD2321F08C2F912FF5
:10107000937002C080E090E00E94FC2B30C1DD2321
:1010800021F08C2F912F937002C080E090E00E949D
:10109000122C25C18C2FDD2319F00E94C81902C023
:1010A0000E941F1A0E94721A1AC1812F837009F0C0
:1010B00048C0D11110C12C2F229526952770220FE0
:1010C000220F6C2F6F70862F90E0A0E0B0E0022E10
:1010D00004C0880F991FAA1FBB1F0A94D2F7C4FF30
:1010E00010C04FE050E060E070E004C0440F551FB6
:1010F000661F771F2A95D2F7409550956095709599
:1011000003C040E050E0BA01212F269526952370B8
:101110004A015B01882A992AAA2ABB2AC501B4017F
:10112000223049F058F4213019F00E94480AD3C007
:101130000E94360AD0C00E945A0ACDC00E94340ACA
:10114000CAC0DD2319F0812F817001C086958823E4
:1011500009F4C1C02C2F229526952770220F220F4B
:101160006C2F6F70862F90E0A0E0B0E0022E04C0DC
:10117000880F991FAA1FBB1F0A94D2F7C4FF10C083
:101180004FE050E060E070E004C0440F551F661F60
:10119000771F2A95D2F7409550956095709503C0BA
:1011A00040E050E0BA01212F2695269523704A0190
:1011B0005B01882A992AAA2ABB2AC501B4012230D8
:1011C00049F058F4213019F00E942D0B84C00E9480
:1011D0001B0B81C00E943F0B7EC00E946E0A7BC029
:1011E000212F2F70F22EDD2339F0822F0E94B40AB6
:1011F0008C2F0E940D076FC08C2F0E9414078F2D1B
:101200000E94D50A68C0C23F21F128F4C03F41F0D6
:10121000C13FC1F044C0C33F19F1C43F79F03FC0A2
:10122000DD2341F0053008F052C0812F8F710E94FC
:10123000FA0A4DC0063008F04AC0F7CF8091790411
:1012400082FF18C0DD2339F0812F8F710E94B40A0C
:101250003EC0DD23C9F3812F8F710E94D50A37C0AC
:10126000DD2329F0812F8F710E949F0A30C00E94D8
:101270007A0A2DC0DD2351F0812F8F71F82E0E9444
:10128000B40A63E08F2D0E94D80F21C081E00E9434
:10129000F30F0230E0F082E00E94F30F18C0DD236C
:1012A00031F0002389F28C2F0E94630610C00023C6
:1012B00091F2C93349F49FEFE7EEF3E09150E0403B
:1012C000F040E1F700C000008C2F0E94B90688EFC3
:1012D0008B0D843020F40E94C12B0E94DD058C2FE1
:1012E000912F0E943707811105C01092C7021092FA
:1012F000C60211C0DD2319F00111F7CF0CC0011196
:10130000F4CF8091C6029091C702029771F78C2F9B
:101310000E940407EACFEE20E9F00E94460F80FD0C
:1013200019C0F60112820E94400F0E94B40AC60141
:101330000E94CF090E94400FDF91CF911F910F9122
:10134000FF90EF90DF90CF90BF90AF909F908F90E5
:101350000C94D50ADF91CF911F910F91FF90EF90E0
:10136000DF90CF90BF90AF909F908F9008950F9394
:101370001F93CF93DF93EC01688179818A810E946A
:10138000F80B8C010E94510B0E94220AB801CE0179
:101390000E945A07DF91CF911F910F910895CF932B
:1013A000DF93EC01988189812B813C81232B31F0E3
:1013B0008F3F31F481E09F3F19F403C081E001C009
:1013C00080E080FD1DC0CE010E949404811110C0F8
:1013D0000E944A0F8823A1F08A81882389F0809196
:1013E000790482FD0DC082E0DF91CF910C94F30F60
:1013F000CE010E94B709CE01DF91CF910C94750404
:10140000DF91CF910895CF93DF9300D000D01F924A
:10141000CDB7DEB70F900F900F900F900F90DF9128
:10142000CF910895CF93DF9300D000D000D0CDB7F7
:10143000DEB726960FB6F894DEBF0FBECDBFDF91A4
:10144000CF910895089508950C94230A0C94240ACA
:101450000E94260A6093EA027093EB028093EC02EA
:101460009093ED020C941B070C94280A0F931F9382
:101470000091EA021091EB022091EC023091ED0212
:10148000602B712B822B932B1F910F910C94280AA8
:101490000F931F930091EA021091EB022091EC024E
:1014A0003091ED0260237123822393231F910F91CA
:1014B0000C94280A0F931F930091EA021091EB02FB
:1014C0002091EC023091ED0260277127822793274B
:1014D0001F910F910C94280A0C94230A0E946C0A05
:1014E0006093E6027093E7028093E8029093E9022A
:1014F0000C941B0760E070E0CB010C946E0A611540
:1015000071058105910529F481E0442361F080E0B3
:101510000895DC01CB0104C0B695A79597958795F2
:101520004A95D2F781700895482F6091E602709134
:10153000E7028091E8029091E9020C947F0A0F93F0
:101540001F9341E050E060E070E08A019B0104C01D
:10155000000F111F221F331F8A95D2F7C901B8014E
:101560001F910F910C946E0A0F931F9341E050E06E
:1015700060E070E004C0440F551F661F771F8A9516
:10158000D2F78091E6029091E702A091E802B09133
:10159000E9028A019B01082B192B2A2B3B2BC9013D
:1015A000B8011F910F910C946E0A0F931F9341E0A5
:1015B00050E060E070E004C0440F551F661F771FC5
:1015C0008A95D2F740955095609570958091E60286
:1015D0009091E702A091E802B091E9028A019B0193
:1015E000082319232A233B23C901B8011F910F9116
:1015F0000C946E0A0F931F9341E050E060E070E09E
:1016000004C0440F551F661F771F8A95D2F780913B
:10161000E6029091E702A091E802B091E9028A0106
:101620009B01082719272A273B27C901B8011F91C9
:101630000F910C946E0A0F931F930091E602109184
:10164000E7022091E8023091E902602B712B822B96
:10165000932B1F910F910C946E0A0F931F9300917F
:10166000E6021091E7022091E8023091E90260233E
:101670007123822393231F910F910C946E0A0F9371
:101680001F930091E6021091E7022091E802309149
:10169000E90260277127822793271F910F910C94ED
:1016A0006E0A0895292F220F920F990F890FE82FA4
:1016B000E695E695E695877051E001C0550F8A954D
:1016C000EAF785E0E89FF0011124E853FD4F20E0A0
:1016D00030E070E04081CB01022E02C096958795E4
:1016E0000A94E2F78170819584278523842781936A
:1016F0002F5F3F4F2530310569F70895292F220FBD
:10170000920F990F890F682F669566956695982FA9
:10171000977085E0689FB001112440E050E080E0C0
:10172000FB01E40FF51FE853FD4F208130E0092E47
:1017300002C0369527950A94E2F721703327042ECC
:1017400001C0220F0A94EAF7822B4F5F5F4F4530AA
:10175000510531F70895BF92CF92DF92EF92FF9239
:101760000F931F93CF93DF938C01C090E602D0902C
:10177000E702E090E802F090E9028091EA0290919D
:10178000EB02A091EC02B091ED02C82AD92AEA2A14
:10179000FB2ACFE1D0E0D701C6010C2E04C0B695DC
:1017A000A795979587950A94D2F780FD04C0219755
:1017B00090F7B12C07C0BC2EB8018C2F0E94FF12ED
:1017C0000197A9F38B2DDF91CF911F910F91FF907E
:1017D000EF90DF90CF90BF900895CF93DF93EC010F
:1017E0000E94AB0BBE010E94FF12DF91CF910895C2
:1017F0001F93CF93DF93EB019091C502992321F0C2
:10180000CB010E94ED0B13C0882349F0CB010E944D
:10181000AB0B182F682FCE010E94520B04C0CB01D6
:101820000E947E0B182FBE01812F0E94FF12DF91B4
:10183000CF911F9108951F93CF93DF93C091EE0234
:1018400016E08091EF02C81799F0D0E01C9FF001DC
:101850001D9FF00D1124E051FD4F408151816281A7
:101860007381848195810E94120A2196C770E9CF05
:10187000DF91CF911F910895409120035091210352
:10188000609122037091230380912403909125039A
:101890000C94120AEF92FF920F931F93CF93DF9352
:1018A0008091250382958F7009F065C08091220395
:1018B000882309F460C08091EE02F090EF0210914D
:1018C000200300912103609123037091240391E090
:1018D0001F3F09F090E0C091D601D091D701292F88
:1018E00096E0E92E8F1509F446C06115710521F0C7
:1018F0000F3F21F030E003C031E001C0322F90E013
:1019000030FD36C0E89EF001E99EF00D1124DF01A4
:10191000A051BD4F11963C911197301329C03C91B5
:10192000311326C012963C911297311121C01396A3
:101930004D915C911497461B570B4C175D07C0F4F3
:10194000809125038F70806180932503EB50FD4FBC
:1019500080818F708061808380E293E00E94CF0954
:10196000DF91CF911F910F91FF90EF900C941B0C82
:1019700001968770B7CFDF91CF911F910F91FF90A4
:10198000EF9008959F92AF92BF92CF92DF92EF9225
:10199000FF920F931F93CF93DF93CDB7DEB761977D
:1019A0000FB6F894DEBF0FBECDBF8C0185E0F80105
:1019B000DE011D9601900D928A95E1F7D8011296ED
:1019C000EC9090912003E09121032091230330912A
:1019D00024032115310531F0EF3F31F481E09F3FC1
:1019E00019F403C081E001C080E0B82FB1709B2ED4
:1019F00080FD47C1D8014C9111965C9111971396C7
:101A0000AD90BC90149780E2C82E83E0D82EF09061
:101A10002203B501621B730B2091D6013091D701CF
:101A2000FF2009F4D9C0809125036217730708F0DD
:101A300095C0282F207F09F052C05E1313C04913B0
:101A400011C0FE2CE1100EC08F70806180932503C1
:101A50000E943C0CC6010E94CF0980912503F80129
:101A600085834DC1AB2831F05F3F31F481E04F3FBA
:101A700019F403C081E001C080E080FD03C081E073
:101A80008E2502C080E090E0F82FF170FF2E80FFDD
:101A90001CC08091EE022091EF0236E0821709F41B
:101AA0000BC190E0389FF001399FF00D1124E051F7
:101AB000FD4F6181561306C06081461303C06281E9
:101AC000E61203C001968770E9CFFE2CEE2009F4E0
:101AD00016C18091250381608093250354C05E1355
:101AE00006C0491304C0E11002C0F80199C0C80142
:101AF0000E945207882361F1EE2051F120912503C5
:101B0000822F82958F7090E0029774F0809120036D
:101B10009091210398878F831986BB86AA862C878C
:101B2000CE0107960E94CF0986E0F801A0E2B3E05B
:101B300001900D928A95E1F70E944A0C0E943C0C9C
:101B40000AC05E1711F1C8010E94520781112CC012
:101B5000C8010E94CF09FF24F394D1C0282F207F11
:101B600081F77A2DB98AA88A6E2D89890E94030A85
:101B700080E293E00E94CF0986E0D6011D928A950B
:101B8000E9F70E943C0CF12CBAC04913DCCFE110FC
:101B9000DACFF8018583C8010E94CF0986E0D6011B
:101BA0001D928A95E9F7ABC0EE2091F220912503B2
:101BB000822F82958F7090E002970CF4B5CF8091C0
:101BC0002003909121039A8389831B82BD82AC827A
:101BD0002E83CE010196A6CF6217730708F044C08A
:101BE000FE2CEE2009F4B4CF5E1330C049132EC092
:101BF0002091250320FD21C0822F82958F70482FD0
:101C000050E041155105C9F0F80125834F305105C9
:101C100041F08F5F982F9295907F822F8F70892B44
:101C20008583C8010E94CF0986E0F801A0E2B3E0F5
:101C300001900D928A95E1F73CC086E0F801A0E2A0
:101C4000B3E001900D928A95E1F759C0C8010E9456
:101C50005207811169CF809125038160809325030C
:101C6000C8010E94CF094BC07A2DB98AA88A6E2D6F
:101C700089890E94030A86E0D6011D928A95E9F7B8
:101C800018C0EE2009F464CFC8010E945207F82E54
:101C9000882309F45DCF86E0F801A0E2B3E001906B
:101CA0000D928A95E1F780E293E00E945D060E9422
:101CB0004A0C0E943C0C23C04D875E878D859E8513
:101CC0000E94ED0B292F22952F70223028F49F704F
:101CD00039F0811105C00BC0243028F49F7049F4FD
:101CE000805E883020F0C8010E94CF099F2CF92C1B
:101CF00006C0D80115969C91907F91F7F8CF8F2D53
:101D000061960FB6F894DEBF0FBECDBFDF91CF91C5
:101D10001F910F91FF90EF90DF90CF90BF90AF9009
:101D20009F9008951F93CF93DF93CDB7DEB72C9785
:101D30000FB6F894DEBF0FBECDBF4F8358876987BB
:101D40007A878B879C87CE0107960E94C20C8823D6
:101D5000D1F09F8188852A853B85232B31F08F3FE9
:101D600031F481E09F3F19F403C081E001C080E0BD
:101D700080FD47C04F81588569857A858B859C8514
:101D80000E94120A3EC086E0FE013796DE011196DF
:101D900001900D928A95E1F7FF81E8856A857B8540
:101DA0006115710531F0EF3F31F481E0FF3F19F427
:101DB00003C081E001C080E080FD23C02091EF02DC
:101DC00030E0C9010196877099274091EE0250E0FA
:101DD00084179507F1F1F983EA837D836C8396E09C
:101DE000929FD001939FB00D1124A051BD4FFE01D1
:101DF000319601900D929A95E1F78093EF020E943F
:101E00001B0C16E08091EE029091EF02891771F1A0
:101E1000189FC001112480519D4F0E94C20C88233D
:101E200029F1E091EE021E9FF0011124E051FD4FD7
:101E30004081518162817381848195810E94120A5F
:101E40008091EE0290E00196877099278093EE02D0
:101E5000D9CF0E9433071092EF021092EE02E0E217
:101E6000F3E086E0DF011D928A95E9F72C960FB624
:101E7000F894DEBF0FBECDBFDF91CF911F910895C3
:101E800080914603859585958595089580914603B3
:101E90008770089590914603977081E009F480E07F
:101EA000089580916903089590916903892B809327
:101EB000690308958095909169038923809369034C
:101EC000089510926903089590916803892B809377
:101ED000680308958095909168038923809368032F
:101EE0000895109268030895809147030895089516
:101EF0000C94770F0C94780F9091790492FD08C0A0
:101F000090914703981721F0809347030C947A0F20
:101F1000089580914703882329F01092470380E0B9
:101F20000C947A0F0895CF93DF93E091D801F0914C
:101F3000D901809169038083E091D801F091D901A2
:101F4000908180916803892B808380914703882347
:101F500081F0E091D801F091D9019081892B8083A3
:101F60008091D8019091D9010E94282C81110E9462
:101F7000890FC091D801D091D90140E250E066E2CA
:101F800073E0CE010E94B535892B69F080E2FE0135
:101F9000A6E2B3E001900D928A95E1F7CE01DF91C0
:101FA000CF910C94D42BDF91CF9108950C94770F9F
:101FB0009091790492FD10C098E0899F90011124BE
:101FC000262B209346030E94B40A809146038595F0
:101FD000859585950C94D60F0C94B40A10924603FF
:101FE00080E00C94D60F2091460380958223809345
:101FF0004603982F977099F430E0482F082E000C74
:10200000550B2417350759F09091790492FD07C0BC
:102010008595859585950E94D50A0C94EE0F0895B7
:102020009091790492FB222720F9281769F080FB10
:1020300092F99093790480917804909179040E94A8
:102040005E1082E00C94F30F08958091790482FB76
:10205000882780F991E089270C94101081E00C9476
:10206000101080E00C9410106FEF7FEF80E090E094
:102070000C94173680E090E00E94E33521E0893E21
:102080009E4F09F020E0822F089582E090E00C94AA
:10209000DB3583E090E00C94DB35CF9384E090E077
:1020A0000E94DB35C82F82E290E00E94DB352C2FA6
:1020B00030E0A901582BCA01CF910895CF93C92FC1
:1020C000682F84E090E00E94F9356C2F82E290E066
:1020D000CF910C94F935AB01BC018FE090E00C94EA
:1020E0000B36AB01BC0183E190E00C940B3660E051
:1020F00070E0CB010C94711060E070E0CB010E94A5
:102100006B100C94771069EE7EEF80E090E00E94F7
:10211000173660E082E090E00E94F93560E083E0ED
:1021200090E00E94F9351092EA021092EB021092B0
:10213000EC021092ED0260E084E090E00E94F9353C
:1021400060E082E290E00E94F93560E085E090E096
:102150000E94F93560E086E090E00E94F9356FEF6B
:1021600087E090E00E94F93540E050E0BA0188E055
:1021700090E00E940B3660E08DE090E00E94F9351F
:1021800040E050E0BA0188E190E00E940B3660E048
:1021900087E190E00E94F93540E050E0BA018CE11F
:1021A00090E00E940B3660E070E080E290E00E94D8
:1021B000173640E050E0BA0188E190E00E940B360B
:1021C0000C947C100C948310682F8EE090E00C949B
:1021D000F9350E94892D609376037093770380937D
:1021E00078039093790360937203709373038093E1
:1021F000740390937503089585B7806885BF85B78C
:10220000806885BF08950C94411608950C940511BB
:102210000C9405110C9408110C9405110C940C11DC
:102220000C9405110E94FC1089E394E10E94B72BE5
:102230000E9410110C940E110E9406110C940511AD
:102240000E9459140E94DC050C942D220E94742DCA
:102250000E94DB130E945B160E9492150E942011BF
:102260000E946E2480E00E94C7240E9465160C9490
:102270000A118F929F92AF92BF92CF92DF92EF920C
:10228000FF920F931F93CF93DF93CDB7DEB72A97BB
:102290000FB6F894DEBF0FBECDBF0E94B615982EC4
:1022A00081110E94E9108AE6A82E83E0B82E00E092
:1022B00010E0802E802F0E947D14D82EF501C19051
:1022C0005F01C826B1F40F5F1F4F0830110589F771
:1022D0008FEF89838A831B820E947D2D8160782FF6
:1022E0009D838C8349815A816B818D810E94F80581
:1022F00038C080917A0381FD0E948314F12CEE2472
:10230000E3948C2D8E2139F10E940311DE20882365
:1023100099F0FE828F8281E0D11001C080E0888731
:102320000E947D2D8160782F9A8789874E815F81F9
:1023300068858A850E94F805F801E659FC4F80817E
:10234000E826E08241E0D11001C040E06F2D882DE9
:102350000E94FD1F06C0F394EE0CF6E0FF12D1CFF1
:10236000B2CF81E0911001C080E02A960FB6F894B8
:10237000DEBF0FBECDBFDF91CF911F910F91FF90B8
:10238000EF90DF90CF90BF90AF909F908F90089587
:10239000CF930E943911C82F0E9441160E946421D8
:1023A0000E946A26C1110E9428250E94901ACF918E
:1023B0000C94ED05CF93DF930E940413EC0181157B
:1023C00021E5920708F045C0811530E5930708F034
:1023D00094C0883E910528F5803E910508F0F8C02C
:1023E000883A910570F4853A910508F07CC08130F7
:1023F000910509F475C008F4E8C0049708F0E8C036
:10240000E4C08F3B910508F0E0C0C85AD0E0CC0F83
:10241000DD1FCE58DD4F0990D881C02DCE019464C8
:10242000D8C0811540E2940758F4811551E0950712
:1024300008F0CEC08D3E910508F4C7C09065C9C0B4
:10244000C11580E4D80708F4C0C0DF70CE01906ADF
:10245000C0C0811525E59207A8F4811534E59307DE
:1024600008F095C0811543E5940708F07BC08115FD
:1024700052E5950708F061C0D82FCC27CE01816FB7
:10248000906AA7C0C11589E5D807A0F4C11528E551
:10249000D20708F082C0C11536E5D30708F095C011
:1024A0008C2F0E9498138F7190E0D82FCC27CE01EB
:1024B00090628FC0C1154AE5D40708F474C0CE01FC
:1024C00090568115904208F080C08D2F8F710E9428
:1024D0009813DD27D0628F71AE01582BCA0179C0E5
:1024E00081E090E076C0C55AD0E0C056DD4F8881CB
:1024F000C82FD0E0CE0190646CC074E096958795AB
:102500007A95E1F7282F23703C2F337081E090E01B
:1025100002C0880F991F3A95E2F79C68AC01522BD4
:102520009A019C2F9F709695969550E2959FE00199
:102530001124C9018C2B9D2B4CC08370992721E05D
:1025400030E002C0220F331F8A95E2F79C2F969548
:10255000969580E2989FE0011124C22BD32BCE01E7
:102560009C6837C08370992721E030E002C0220FB9
:10257000331F8A95E2F79C2F9695969540E2949F9B
:10258000E0011124C22BD32BCE019A6822C0D82F90
:10259000CC27CE01846F906A1CC0DC2FCC27CE01E3
:1025A000806F906A16C08C2F8F700E94981394E0F1
:1025B000D695C7959A95E1F7CF70D0E0DC2FCC2760
:1025C000D0699E01282BC90104C080E090E001C0C1
:1025D000CE01DF91CF91089520E3829FC0011124A5
:1025E000FC0126E0729FE00DF11D1124E60FF11DA4
:1025F000EE0FFF1FE652FF4F8591949108950E94C0
:10260000EC120E94DA1108958238910569F1B0F454
:102610008133910509F46DC048F48932910509F4BC
:1026200063C08A32910509F469C008958533910524
:1026300009F455C089339105B9F00895833E910599
:1026400069F138F4803E9105B1F0823E910509F1BF
:102650000895863E9105A9F1873E9105B9F1843E22
:10266000910509F064C023C02091780420FD4FC07B
:1026700021FD4DC008958091780480FD44C0809173
:10268000790480FF44C08091780484FD42C083EEC9
:102690004DC08091780482FF38C0F5CF80917804D6
:1026A00082FD33C08091790480FD31C0ECCF8091F0
:1026B000790481FF32C08091780484FD2AC087EEBE
:1026C00035C08091780483FF26C0F5CF80917804CF
:1026D00083FD21C08091790481FD1FC0ECCF8091E2
:1026E000780485FD1CC01DC08091780485FD19C04B
:1026F00016C08091780486FD16C017C080917804BA
:1027000086FD13C010C089E311C082EE0FC080EEB9
:102710000DC080E00BC086EE09C084EE07C089E2E0
:1027200005C085E303C08AE201C081E390E008951B
:102730009091780492FF0DC0282F2871283019F449
:10274000877F846006C0282F2471243011F48B7F8A
:10275000886093FF0DC0282F2871283119F4877ED7
:10276000846106C0282F2471243111F48B7E886186
:102770002091790420FF0DC0382F3871383019F4BA
:10278000877F816006C0382F3171313011F48E7F20
:10279000886021FF0DC0282F2871283119F4877E09
:1027A000816106C0282F2171213111F48E7E88614C
:1027B00094FD877E0895109274041092750410920F
:1027C0007604109277040895CF92DF92EF92FF92F1
:1027D0006B017C010E94411681110EC00E94892D5F
:1027E000C61AD70AE80AF90AC0927404D09275048E
:1027F000E0927604F0927704FF90EF90DF90CF9014
:1028000008950F931F930E944116882321F01F9172
:102810000F910C94892D0E94892D009174041091C0
:1028200075042091760430917704600F711F821F28
:10283000931F1F910F910895CF92DF92EF92FF9215
:102840006B017C010E944116882341F0C701B6014B
:10285000FF90EF90DF90CF900C94A42D0E94011474
:102860006C197D098E099F09FF90EF90DF90CF9042
:10287000089580E008950C9434100E94B6158FE3FB
:102880009CE90197F1F700C000000E94B6150E9474
:102890005916811102C084E001C080E00E947D14BD
:1028A00081FF04C00E943B140C94E62D08950C9403
:1028B0003D140E943A10811102C00E94E2100E9451
:1028C000451080937A030E944D1090937904809371
:1028D00078040E9457140E944910682F70E080E02D
:1028E00090E00E94340A6091E6027091E7028091C4
:1028F000E8029091E9020C946C0AE82FF0E0ED57A1
:10290000FB4F80810895089580EA8A95F1F7089534
:1029100000C008950C94841408950C948C140C94A5
:102920008D140C94CB030C948C140F931F93CF93A2
:10293000DF9300D000D0CDB7DEB70E944116609182
:102940008B048823E9F119821A821B821C82862F4C
:1029500090E08E010F5F1F4FB8018D579B4F0E9473
:102960007316882389F080917A0490E044E050E067
:10297000B8018D579B4F0E94B53521E020937B0312
:10298000892B69F410E019C080917B038823D1F36F
:1029900084E0F80111928A95E9F710927B03E091A7
:1029A0007A04F0E0ED57FB4F89819A81AB81BC81BD
:1029B00080839183A283B38311E00E9482040DC0BF
:1029C00070E06D577B4F80917A0490E08D579B4F5C
:1029D0000E94FD160E94931410E0812F0F900F901B
:1029E0000F900F90DF91CF911F910F910895F89460
:1029F000E82FE295EF70F0E031A1282F2F7081E0F1
:102A000090E001C0880F2A95EAF7982F90959323BC
:102A100091A392A1892B82A3789408950F931F9379
:102A2000CF93DF93C9EAD2E089918F3F11F00E94E2
:102A3000F71482E0CD3AD807B9F7C3EAD2E009EA41
:102A400012E089918F3F11F00E94F7140C171D07B7
:102A5000C1F7DF91CF911F910F910895CF92DF922F
:102A6000EF92FF920F931F93CF93DF938C01C62FAA
:102A7000D0E0CE0187559D4F7C01FC0190819F3FA6
:102A800009F447C0D62EF894E92FE295EF70F0E0F4
:102A900081A19F7021E030E001C0220F9A95EAF7F2
:102AA000822B81A382A12095282322A378940E94BF
:102AB0008814E3EAF2E049EA52E031E0C12C2191C6
:102AC0002F3F89F0A22FA295AF70B0E090968C9125
:102AD00090E02F7002C0959587952A95E2F780FDCA
:102AE00002C0832F01C080E0C82A330F4E175F0752
:102AF00031F7F70180818F3F11F00E94F71461E0F8
:102B0000C11001C060E08D2D0E948A14C00FD11F3A
:102B1000C882DF91CF911F910F91FF90EF90DF90CE
:102B2000CF9008958091DA018091DA01811102C07D
:102B300094E001C090E090938B0484E0891B809323
:102B40007A040E940E1588E0E3E8F4E0DF01982F94
:102B50001D929A95E9F7EBE7F4E0DF011D928A9563
:102B6000E9F784E00E940A160C948004EF92FF9229
:102B70000F931F93CF93DF93CDB7DEB728970FB690
:102B8000F894DEBF0FBECDBF8E010F5F1F4F88E0F0
:102B9000F80111928A95E9F7F12C6F2DC8010E9476
:102BA0002E15F394F4E0FF12F8CF48E050E0B8019E
:102BB0008BE794E00E94B5357C0121E0892B09F474
:102BC00020E0E114F10441F088E0F801ABE7B4E063
:102BD00001900D928A95E1F760918B0470E06D573A
:102BE0007B4F44E08BE794E00E940B16EF2819F42A
:102BF0000E94951402C081E090E028960FB6F894E8
:102C0000DEBF0FBECDBFDF91CF911F910F91FF901F
:102C1000EF9008950895FF920F931F93CF93DF9342
:102C20008C01F62ED72FC42F222349F081E0809308
:102C30007E030E947D2D90937D0380937C03809181
:102C40007E038823C1F080917C0390917D030E94D4
:102C5000952D059780F0EF2DFD2FD8014C2F50E0DA
:102C6000CD01801B910B841795071CF48D918193E6
:102C7000F7CF10927E03DF91CF911F910F91FF90BC
:102C800008958091810381110DC00E94DD3481116E
:102C900002C082E001C081E080938103823011F4A0
:102CA0000E94D83481E090918103913009F080E056
:102CB00008950C9441160E9459168093DA010E94DF
:102CC000411681110C94AB1608950E944116811192
:102CD00002C00C94AD16089581E0909182039A3061
:102CE00008F080E008950F931F93CF93DF93EC01DA
:102CF0008B01809182038A3038F4B801CE010E94A2
:102D0000FB1681111DC00AC080917F039091800342
:102D10000E94952D843F914080F715C080918203D9
:102D20008F3F19F08F5F80938203809182038A30F6
:102D300060F00E947D2D9093800380937F0303C0F9
:102D40001092820302C080E001C081E0DF91CF9148
:102D50001F910F9108950C94502A0C94532ADF92DE
:102D6000EF92FF920F931F93CF93DF937901C82FB8
:102D7000880FDD0B41155105A9F0FE0193E0EE0F20
:102D8000FF1F9A95E1F7E552FE4F818192818D57A1
:102D90009C4F208130E04217530708F49A01A901A3
:102DA0000E94C235CE010E943C2BD82E8823D1F040
:102DB00001151105B9F083E0CC0FDD1F8A95E1F70D
:102DC000FE01E552FE4F438150E00417150708F459
:102DD000A801C552DE4F6C817D816D577C4FC701C4
:102DE0000E94C2358D2DDF91CF911F910F91FF90E1
:102DF000EF90DF9008950C94B9180C94E518AF92F9
:102E0000BF92CF92DF92EF92FF920F931F93CF93D7
:102E1000DF93C82F7B01D42F69015801FB0160812A
:102E20007181828193810E94A42D64367105810590
:102E3000910510F4DD23A1F000E010E020E030E087
:102E4000A501B6018C2F0E94AF16C82F882349F028
:102E50000E94892DF701608371838283938301C06F
:102E6000C1E08C2FDF91CF911F910F91FF90EF90D8
:102E7000DF90CF90BF90AF9008950F931F93CF93A3
:102E8000DF93CDB7DEB727970FB6F894DEBF0FBE3E
:102E9000CDBF86E0ECE8F4E0DE01119601900D92E2
:102EA0008A95E1F70E947D228F836091AD02709137
:102EB000AE02635F7F4F47E050E0CE0101960E9473
:102EC000B53541E0892B09F440E007E010E09E01B0
:102ED0002F5F3F4F6BEA73E084E00E94FF16279656
:102EE0000FB6F894DEBF0FBECDBFDF91CF911F911B
:102EF0000F9108950F931F93CF93DF9300D000D0CD
:102F0000CDB7DEB76091A7037091A8038091A903A4
:102F10009091AA030E94A42D643671058105910544
:102F200028F10E940114DC01CB010296A11DB11D04
:102F300089839A83AB83BC8300E010E020E030E01B
:102F400044E050E0BE016F5F7F4F83E00E94AF1608
:102F5000182F882361F00E94892D6093A703709336
:102F6000A8038093A9039093AA0301C011E0812FC5
:102F70000F900F900F900F90DF91CF911F910F91B5
:102F80000895AF92BF92CF92DF92EF92FF920F938C
:102F90001F93CF93DF937C015B016A010E946C1643
:102FA000811103C001E010E002C00AE010E0C1E0BE
:102FB000D0E0F894B501C701F60109957894811124
:102FC00015C021960C171D0794F0CC9F9001CD9F42
:102FD000300D300D112480E090E045E34A95F1F783
:102FE0000000019682179307C1F7E3CF81E0DF91DC
:102FF000CF911F910F91FF90EF90DF90CF90BF90F6
:10300000AF900895AF92BF92CF92DF92EF92FF926E
:103010000F931F93CF93DF9300D000D01F92CDB7B3
:10302000DEB75B01E090AD02F090AE0201E010E08F
:103030009E012B5F3F4F40E050E060E070E080E099
:103040000E94AF16182F882309F43EC067018FEF46
:10305000C81AD80A60919F037091A0038091A103C0
:103060009091A2030E94A42D6436710581059105FB
:1030700018F104E010E09E012F5F3F4F40E050E068
:1030800060E070E081E00E94AF16182F64E070E00D
:10309000C6010E946F2491E02D81281390E019232E
:1030A00051F10E94892D60939F037093A003809338
:1030B000A1039093A20311C064E070E0C6010E94D6
:1030C0006F249D818913D5CFF70181819281A381DE
:1030D000B48189839A83AB83BC83112361F0898196
:1030E0009A81AB81BC8180939B0390939C03A093B6
:1030F0009D03B0939E0380919B0390919C03A091AC
:103100009D03B0919E03F50180839183A283B383D5
:10311000812F0F900F900F900F900F90DF91CF9114
:103120001F910F91FF90EF90DF90CF90BF90AF90E5
:1031300008950F931F93CF93DF93EC016091AD023D
:103140007091AE026B5F7F4F44E050E00E94B53556
:1031500041E0892B09F440E004E010E09E0163EABD
:1031600073E082E00E94FF16DF91CF911F910F91D3
:1031700008950F931F93CF93DF93EC018B0142E0EF
:1031800058E10E94C1178823D1F049E958E1B801FC
:10319000CE010E94C117882391F04AE757E1B80198
:1031A000CE010E94C117882351F04DE357E1B801C9
:1031B000CE01DF91CF911F910F910C94C11780E048
:1031C000DF91CF911F910F9108950F931F93CF938C
:1031D000DF938C01F894C091AD02D091AE02CE0184
:1031E000019624E0FB01DC0101900D922A95E1F7A4
:1031F00064E070E00E946F2488837894F894FE0164
:10320000359684E0D80101900D928A95E1F7789483
:10321000F89469857A858B859C8500919703109138
:1032200098032091990330919A03601771078207E0
:10323000930751F0609397037093980380939903D9
:1032400090939A030E94E4137894F89486E0FE0128
:103250003D96ACE8B4E001900D928A95E1F78B8938
:103260000E9463227894DF91CF911F910F9108956E
:103270000E949E2F0E9426110C94AA2F0E94AE2F0E
:103280000E94C8110C94C82F0E941B2D0E94852FEC
:103290000E9412110E9438190E943E190E941C11AE
:1032A000FBCF8091230290E0880F991FFC01E55E1F
:1032B000FD4F2081FC01E55FFD4F80819091B503BA
:1032C000191614F42093B5039091B50397FF04C029
:1032D000922F91959093B5039091B603191614F41B
:1032E0002093B6039091B60397FF03C021952093D6
:1032F000B6039091B803191614F48093B803909113
:10330000B80397FF04C0982F91959093B8039091BC
:10331000B703191614F48093B7039091B70397FF7E
:1033200003C081958093B7033091B5033323E1F057
:103330002091B6032223C1F045EB3403C0011124D0
:10334000992319F09093B50303C081E08093B503EE
:1033500035EB2303C0011124992319F09093B60390
:1033600003C081E08093B6034091B803442379F011
:103370003091B703332359F025EB4203A001112408
:103380005093B8033203C00111249093B7030895FA
:1033900040912302242F30E0220F331FF901E55E14
:1033A000FD4F90818D3E11F4919502C08E3E19F42F
:1033B0009093B6033EC08F3E11F4919502C0803FBA
:1033C00019F49093B50335C0F901E55FFD4F908185
:1033D000893F19F08A3F21F491959093B70329C052
:1033E0008B3F11F4919502C08C3F19F49093B80370
:1033F00020C09FE0980F983078F421E030E0B901C8
:1034000002C0660F771F9A95E2F7CB019091B40343
:10341000892B8093B4030DC08D3F11F481E007C068
:103420008E3F11F482E003C08F3F19F483E0809354
:1034300023028091230248130C94511908958D3E64
:1034400039F49091B60397FF39C01092B6030895EE
:103450008E3E29F49091B6031916BCF32FC08F3E0F
:1034600039F49091B50397FF29C01092B5030895E0
:10347000803F29F49091B5031916BCF31FC0893F12
:1034800039F49091B7031916CCF41092B70308954C
:103490008A3F29F49091B70397FF10C0F6CF8B3F76
:1034A00039F49091B80397FF09C01092B8030895BA
:1034B0008C3F21F49091B8031916BCF39FE0980F4C
:1034C000983078F421E030E0A90102C0440F551F84
:1034D0009A95E2F7CA0180959091B403892380936D
:1034E000B40308950E947D2D2091B503211104C0DD
:1034F0002091B603222321F09093B2038093B1036D
:103500002091B703211104C02091B803222321F098
:103510009093B0038093AF0383EB93E00C94EE2B76
:10352000EF92FF920F931F93CF93DF9300D000D0C1
:1035300000D0CDB7DEB786E0E3EBF3E0DE01119615
:1035400001900D928A95E1F7E090B503F090B603F3
:103550000091B7031091B8031092B5031092B6030F
:103560001092B7031092B803E11002C0FF20B1F02F
:103570008091B1039091B2030E94952DE0912302B6
:10358000F0E0EE0FFF1FED5EFD4F20813181281727
:10359000390720F4E092B503F092B603111102C08E
:1035A0000023B1F08091AF039091B0030E94952D5C
:1035B000E0912302F0E0EE0FFF1FED5FFD4F208151
:1035C00031812817390720F40093B7031093B8030B
:1035D0008091B50381110BC08091B603811107C0A2
:1035E0008091B703811103C08091B80381110E94BB
:1035F000721AEB82FC820D831E8386E0FE013196F7
:10360000A3EBB3E001900D928A95E1F726960FB6F1
:10361000F894DEBF0FBECDBFDF91CF911F910F9108
:10362000FF90EF900895E3EBF3E086E0DF011D9259
:103630008A95E9F70895EF92FF920F931F93CF9326
:10364000DF938B01682F11110AC0442329F0E82F62
:10365000F0E0E657FB4F6491762F862F75C0212F3F
:1036600030E0E82FF0E0442321F0E657FB4FE491EF
:10367000F0E046E0049FC0011124CFEFD0E0BE018E
:103680000E94EA344BEA4603C001479F900D112483
:10369000800F911D800F911D982F990F890FAE01FA
:1036A000421B530B4E9FD0014F9FB00D5E9FB00D3C
:1036B00011249B2F189FA0011124452F55278E01FF
:1036C000041B150B0E9FA0010F9F500D1E9F500D48
:1036D00011247E01E81AF108E29E8001E39E100D9C
:1036E000F29E100D1124212F3327C21BD30BCE9F26
:1036F0009001CF9F300DDE9F300D11246230710597
:10370000A9F048F46115710569F061307105C9F4DB
:103710008B2F752F0DC06430710581F058F0663025
:10372000710579F47E2F8B2F932F0DC0832F7B2F64
:103730009E2F09C08E2F7B2F952F05C08E2F732FA4
:1037400002C07E2F852F692FDF91CF911F910F919E
:10375000FF90EF90089541E00E941B1B089520E028
:1037600030E0869F212D969F200D311D1124C90127
:103770000895A22F50E0FA01EE0FFF1FEC5FFE4FFD
:1037800091A9905297FD9195440F551FFA01EC5C59
:10379000FE4F3081232F30E02A1B3109290F311DC4
:1037A00097FD3A95620F08954095282F429F412D2D
:1037B0001124842F0895CF93C82F0E94591688236F
:1037C00021F081E0CB3128F003C081E0C63308F05E
:1037D00080E0CF9108950E94AB1B08951F93CF9373
:1037E000DF935FEF580FA1E0A80F4FEF460F91E076
:1037F000960FC82FD0E0461780F426E02C9FF001EA
:103800002D9FF00D1124E851FC4FE40FF11D208194
:1038100030E1230F08F42FEF2083262F30E076E0ED
:103820007C9FF0017D9FF00D1124E851FC4FEF01CA
:10383000C20FD31F788110E2710F08F47FEF7883F5
:10384000963040F4E90FF11D708110E1710F08F41A
:103850007FEF7083A83070F5B0E0461780F476E013
:103860007A9FF0017B9FF00D1124E851FC4FE40F8B
:10387000F11D70811DE0710F08F47FEF708376E019
:103880007A9FF0017B9FF00D1124E851FC4FDF017E
:10389000A20FB31F7C9110E1710F08F47FEF7C93AE
:1038A000963040F4E90FF11D70811DE0710F08F4AE
:1038B0007FEF7083581778F5A52FB0E0461780F496
:1038C00086E08A9FF0018B9FF00D1124E851FC4F98
:1038D000E40FF11D40815DE0450F08F44FEF408398
:1038E00086E08A9FF0018B9FF00D1124E851FC4F78
:1038F000DF01A20FB31F2C9130E1230F08F42FEF4B
:103900002C93963040F4E90FF11D20813DE0230F08
:1039100008F42FEF2083DF91CF911F910895ECE8F9
:10392000F4E085E0808380913E0290913F02A09177
:10393000400281839283A3838FE784838FEF858303
:1039400046E050E06CE170E0CF010E94E935109252
:10395000B903089580E008950F931F93CF93DF93E9
:10396000C82FD62F8A010E94AA1C96E0C99FF00199
:103970001124EC5FFE4FED0FF11D90819F3F29F068
:10398000F801E80FF11D90838F5FDF91CF911F91B8
:103990000F910895E091B502F091B6020994E0917B
:1039A000B102F091B2020994BF92CF92DF92EF92EE
:1039B000FF920F931F93CF93DF938C017B01FC0148
:1039C000C0818BE0C89FC02D1124DBE0DC0FD73312
:1039D00008F0D6E30E945916882319F0DC3108F06C
:1039E000DBE10E945916811103C0CB3108F4CBE111
:1039F000609190046695669521E0620F08F46FEF80
:103A000080919204909193040E94AF1BB82ECD1721
:103A1000F0F4CC2ED12CF601E056FE4F9081F80147
:103A20008181892391F060918D0470918E04809141
:103A30008F042B2D4C2FF70109950E94EB1B462F6D
:103A4000282F672FC6010E94CF1CCF5FE0CF8D2F9C
:103A5000DF91CF911F910F91FF90EF90DF90CF906A
:103A6000BF900C94DB1B69EB7BE10C94D41CAF92F0
:103A7000BF92CF92DF92EF92FF920F931F93CF935B
:103A8000DF938C017B01FC01C0818BE0C89FC02DBE
:103A90001124DBE0DC0FD73308F0D6E30E9459167F
:103AA000882319F0DC3108F0DBE10E9459168111FE
:103AB00003C0CB3108F4CBE12091900431E0230F17
:103AC00008F42FEF30E040E050E06FEF7FEF80E050
:103AD00090E00E9434356901CD1708F041C0AC2E4A
:103AE000B12CF501E056FE4F9081F80181818923C8
:103AF000A9F190919604915097FD15C0292F092E98
:103B0000000C330BF901EA56FB4F8189C813F3CF40
:103B1000220F331FF901EA56FB4F218D328D2C15F0
:103B20003D0548F701C096016091900441E0640FA3
:103B300008F46FEFC9010E94AF1BAC0160918D04C6
:103B400070918E0480918F04F70109950E94EB1B00
:103B5000462F282F672FC5010E94CF1CCF5FBCCFF7
:103B60008D2FDF91CF911F910F91FF90EF90DF90FC
:103B7000CF90BF90AF900C94DB1B64ED7BE10C9475
:103B8000371DDF92EF92FF920F931F93CF93DF9336
:103B90008C01DC018C91CBE08C9FC02D1124DBE0EB
:103BA000DC0FD73308F0D6E30E945916882319F0AA
:103BB000DC3108F0DBE10E945916811103C0CB31E2
:103BC00008F4CBE160918D0470918E0480918F0494
:103BD0000E94EB1BF62EE72ED82ECD1798F4EC2F73
:103BE000F0E0DF01A056BE4F8C91D80111969C9158
:103BF000982331F02D2D4F2D6E2DCF010E94CF1C1B
:103C0000CF5FEBCF8D2FDF91CF911F910F91FF9061
:103C1000EF90DF900C94DB1BAF92BF92CF92DF92BC
:103C2000EF92FF920F931F93CF93DF938C01FC01D0
:103C3000C0818BE0C89FC02D1124DBE0DC0FD7339F
:103C400008F0D6E30E945916882319F0DC3108F0F9
:103C5000DBE10E945916811103C0CB3108F4CBE19E
:103C6000E0908E04F0908F04D0908D046D2D7E2D09
:103C70008F2D0E94EB1BC62EB72EA82E60919004AC
:103C80006D0D7E2D8F2D0E94EB1BF62EE72ED82E6C
:103C9000CD17B8F48C2F90E0FC01E056FE4F308138
:103CA000F8012181232359F030FF04C02D2D4F2D21
:103CB0006E2D03C02A2D4C2D6B2D0E94CF1CCF5F83
:103CC000E7CF8D2FDF91CF911F910F91FF90EF9054
:103CD000DF90CF90BF90AF900C94DB1B1F93CF93DE
:103CE000DF93FC01E056FE4F20816223D1F0EC010E
:103CF0000E94A535182F0E94A5358F77782F20E8D0
:103D0000720F08F47FEF612F80918F040E94EB1BEC
:103D1000462F282F672FCE01DF91CF911F910C9452
:103D2000CF1CDF91CF911F910895CF92DF92EF9238
:103D3000FF921F93CF93DF937C01FC01828181115D
:103D40001DC06091900420E1620F08F46FEF809134
:103D50009204909193040E94AF1B65E070E00E9472
:103D6000EA34892BD9F50E94A53566E370E00E94FC
:103D7000FE34F70161810E946E1E30C0F701808120
:103D8000CBE08C9FC02D11241BE01C0F173308F0D3
:103D900016E30E945916882319F01C3108F01BE124
:103DA0000E945916811103C0CB3108F4CBE1D0E059
:103DB000C12ED12CCC15DD053CF4F7016181CE017B
:103DC0000E946E1E2196F6CF812FDF91CF911F9119
:103DD000FF90EF90DF90CF900C94DB1B80E0DF91A1
:103DE000CF911F91FF90EF90DF90CF900895FF92B9
:103DF0000F931F93CF93DF93182F062FF42EC0E05D
:103E0000D0E02F2D402F612FCE010E94CF1C219694
:103E1000C633D105B1F7DF91CF911F910F91FF907C
:103E200008952F923F924F925F926F927F928F925E
:103E30009F92AF92BF92CF92DF92EF92FF920F9339
:103E40001F93CF93DF93CDB7DEB72B970FB6F894C0
:103E5000DEBF0FBECDBF5C01DC018C910BE0809F0B
:103E6000002D1124BBE0B00FB987B13310F0E0E3AF
:103E7000E987D50112968C91882361F040E060E0DB
:103E800080E00E94F71E80E3E8EEF3E0DF011D9280
:103E90008A95E9F7F5018081811115C08091190497
:103EA00090911A040E94952D21E08931910508F422
:103EB00020E020931804499730F00E947D2D9093C4
:103EC0001A048093190410E09985892F90E09B874C
:103ED0008A8796E0492EDE0111963D012AEA222EBC
:103EE0008A859B85081719070CF069C04801B7E05F
:103EF0008B229924780183E0F594E7948A95E1F781
:103F0000489CF001499CF00D1124E851FC4FEE0D46
:103F1000FF1D5080A3016E2D882D0E94AC1C382EF1
:103F200063018C2D8619831508F032C0D601EC91FF
:103F3000F0E0E056FE4F9081F5018181892321F167
:103F4000252D35E5231B08F420E0622D621B7091BE
:103F50008E04222D352D230F08F42FEF30918F047E
:103F600082E0289F200D11242E5F239F212D1124F4
:103F7000822F0E94EB1B462FD6019C91282F672F82
:103F8000892F90E00E94CF1CBFEFCB1ADB0AC9CF6C
:103F900080911804882381F0252D31E0231B08F43B
:103FA00020E0489CC001499C900D112488519C4FF1
:103FB000FC01EE0DFF1D20830F5F1F4F91CF81E0AD
:103FC0009985903308F080E02B960FB6F894DEBF09
:103FD0000FBECDBFDF91CF911F910F91FF90EF905A
:103FE000DF90CF90BF90AF909F908F907F906F9019
:103FF0005F904F903F902F900895AF92BF92DF92C5
:10400000EF92FF920F931F93CF93DF93CDB7DEB75D
:1040100028970FB6F894DEBF0FBECDBFE82ED62E80
:10402000442339F0AE014F5F5F4F0E94AC1CF82E65
:1040300001C0F12C0F2D10E08091BA039801280FD8
:10404000311D293031056CF188E090E05C01A01A47
:10405000B10AB80165547C4FA5018BEB93E00E9437
:10406000C235B8016D537C4FA50183EC93E00E94EB
:10407000C235A501440F551FB801660F771F6D5259
:104080007C4F83ED93E00E94C235B80165537C4FAD
:10409000A5018BEC93E00E94C23588E08F198093D4
:1040A000BA031091BA03DE01119640E0842F810F0C
:1040B000F41609F190E05D91252F30E0BC016654C3
:1040C0007C4FF901EE0FFF1FEC5CFE4F0081FB01FE
:1040D0000183220F331FF901EC5FFE4F21A9FB0181
:1040E0002187518B880F991FFC01E654FC4F128EDB
:1040F000118E4F5FDBCF8093BA0380918C048C7F4D
:10410000843121F46D2D8E2D0E94EE1B28960FB662
:10411000F894DEBF0FBECDBFDF91CF911F910F91FD
:10412000FF90EF90DF90BF90AF9008958091920440
:1041300090919304A0919404B091950488279C7069
:10414000AA27BB272AE0B695A795979587952A9524
:10415000D1F782309105A105B10571F08330910549
:10416000A105B10569F040E00197A105B10511F085
:1041700060E008C064E102C044E160E080E003C0A8
:1041800044E164E184E10C94F71ECF93C82F809141
:1041900028028C130DC020918C04237030E04091D4
:1041A000290250E081E02417350719F480E001C0AE
:1041B00081E0817080932702809191049091260282
:1041C000981739F08093260240E060E080E00E947A
:1041D000F71EC33029F485E292E00E94331D08C027
:1041E000C43068F5C130C1F485E292E00E94C11D7F
:1041F000909125029F5F90932502811141C082E03A
:10420000809324028091270281113AC0C11138C0E5
:1042100083E08093240234C0C23050F4809127029E
:10422000882359F040E060E080E00E94F71E05C05E
:1042300085E292E00E940C1EDBCF80E0D9CFC53032
:1042400029F485E292E00E94111FD2CFC53028F4F4
:1042500085E292E00E94951ECBCFC63029F485E21C
:1042600092E00E94BD1DC4CFCF3F21F40E94962052
:1042700082E0CFCF809125028F5F80932502BFCF50
:10428000CF91089508950C9442210E9443210C94EB
:10429000422108950C944921CF93DF93FC01C08102
:1042A000C1508BE0C89FC02D1124DBE0DC0FD73359
:1042B00008F0D6E36D2F8C2F0E944A216D2F8C2F92
:1042C000DF91CF910C9449214F925F926F927F9230
:1042D0008F929F92AF92BF92CF92DF92EF92FF9216
:1042E000CF936091E3037091E4038091E503909193
:1042F000E6030E941C146B017C010E9401144B0117
:104300005C016093E3037093E4038093E50390936F
:10431000E603A091BA03EAEBF3E08A2F90E04FEFB7
:104320005FEF60E070E04C195D096E097F09A91725
:1043300099F0218D328D2901612C712C4415550580
:104340006605770510F4815004C02C0D3D1D328F99
:10435000218F9F5F3296EBCF8093BA038091E70362
:10436000811108C0C0918C048C2F837019F0C69500
:10437000C69501C0C0E0809124028130D9F028F0B8
:10438000823089F18330E1F15AC010922502809287
:10439000920490929304A0929404B092950489E2BE
:1043A000EAEBF3E0A6E9B4E001900D928A95E1F71B
:1043B00081E023C08C2F0E94C520CC2309F43FC08C
:1043C0000E94452185E292E0CF91FF90EF90DF902F
:1043D000CF90BF90AF909F908F907F906F905F90A5
:1043E0004F900C944C21C093280280918C048370D0
:1043F000809329020E94CA1C83E0809324021FC07C
:104400008091B903882351F046E050E06CE170E000
:104410008CE894E00E94E9351092B903609192040F
:104420007091930480919404909195040E941C14BF
:10443000603171058105910510F010922402CF9131
:10444000FF90EF90DF90CF90BF90AF909F908F90B4
:104450007F906F905F904F900895E091AF02F09140
:10446000B002099510929604EFEAF4E08FEF9FEF07
:104470008193919324E0EF3BF207D1F71092BA03B6
:10448000E3EDF3E08FEF9FEF8193919323E0E33E21
:10449000F207D1F70E943A10811104C00E94E21085
:1044A0000E948F1C46E050E06CE170E08CE894E0E4
:1044B0000E94CB351092B90380918C048C7F11F44B
:1044C0000C948F1C0895CF93C82F882391F080916E
:1044D000E70381110EC00E94C5201092280280912E
:1044E0008C048370809329020E94CA1C83E080930D
:1044F0002402C093E703CF9108958091E7030895C4
:10450000ECE8F4E0208191E092279083109224025D
:104510009091B903892B8093B903089581E00C949D
:10452000802280918C04837011F410922402809177
:104530008C048C7F816080938C0408950E9491226A
:104540008091B90381608093B903089590918C04A0
:104550009370A1F0811102C0946007C0873010F001
:10456000986103C0880F880F982B90938C04109249
:1045700024028091B903682B6093B903089561E028
:104580000C94A622682F90918C04969596959F5F27
:10459000973010F4892F01C081E00C94A62281E0AD
:1045A0000C94C222682F90918C0496959695915008
:1045B00011F0892F01C086E00C94A62281E00C94B2
:1045C000D22290918C04937071F080938D0460934B
:1045D0008E04473908F046E940938F048091B9036F
:1045E000282B2093B9030895ACE8B4E01196EC9120
:1045F0001197F0E0282F13964C91139712966C9117
:10460000CF0108960C94E12281E00C94F422ACE8EE
:10461000B4E01196EC911197F0E0282F13964C918D
:10462000139712966C91CF0108970C94E12281E0C8
:104630000C940723ECE8F4E0628128E0620F08F4B0
:104640006FEF9181282F4381892F90E00C94E12214
:1046500081E00C941A23ECE8F4E0628128E0621B0C
:1046600008F460E09181282F4381892F90E00C9419
:10467000E12281E00C942B23ECE8F4E0438128E074
:10468000420F08F44FEF9181282F6281892F90E02B
:104690000C94E12281E00C943C23ECE8F4E04381AB
:1046A00028E0421B08F440E09181282F6281892F85
:1046B00090E00C94E12281E00C944D2380939004CF
:1046C0008091B903682B6093B903089520919004F9
:1046D0003AE0230F08F42FEF682F822F0C945E230B
:1046E00081E00C946623209190043AE0231B08F4A7
:1046F00020E0682F822F0C945E2381E00C947323BA
:10470000089566E370E08FEB94E00C944324FF92ED
:104710000F931F93CF93DF93EC01F62E042F122FEC
:104720000E945916811105C0CB31D1057CF06B97E1
:1047300003C0CB31D10554F4CE01880F991FC80FA7
:10474000D91FC154DB4FF98208831A83DF91CF91BF
:104750001F910F91FF900895FF920F931F93CF9396
:10476000DF93182F062FF42EC0E0D0E02F2D402F1E
:10477000612FCE010E9487232196C633D105B1F760
:10478000DF91CF911F910F91FF900895882311F031
:10479000FA0101C0FB0109941F93CF93DF93FB0142
:1047A000128111116BC0EC010E94510F8272CA3C40
:1047B000FCE5DF0709F450C0C0F4C63CECE5DE07B9
:1047C000E1F148F4C43C9CE5D90759F178F5C33CC4
:1047D000DC4521F121C0C83C9CE5D90799F1B8F529
:1047E00044E053E267E173E225C0CE3CFCE5DF071D
:1047F00009F441C050F4CC3CECE5DE0791F1B0F592
:104800004AE453E26BE573E215C0C73D8CE5D80777
:10481000A8F1CE35DD4591F111E030C00E948E2225
:104820002DC04EED52E26FEC72E204C04FEC52E24A
:104830006EED72E20E94C62321C047E153E264E0BC
:1048400073E2F8CF49E353E268E273E2F3CF48E260
:1048500053E269E373E2EECF4BE553E26AE473E2BD
:10486000E9CF4DE753E260E773E2E4CF40E753E27C
:104870006DE773E2DFCF81E00E94BF22812FDF91DD
:10488000CF911F910895539A2BB1277F3BB1386088
:104890004FB7F894FC01CB01880F991F680F791F5F
:1048A0006E0F7F1FE617F70789F0819198E03BB9FB
:1048B000000000C087FF2BB9880F000000C000C0B7
:1048C00000C02BB900C09A9591F7ECCF4FBF8FE590
:1048D00094E00197F1F700C0000008950895FC01ED
:1048E000680F791F8FEF91E3E617F70771F02191B9
:1048F000822728E030E087FF03C0880F892701C0A6
:10490000880F21503109B9F7EFCF0895EF92FF9248
:104910000F931F93CF93DF93EC017B0164E670E06C
:1049200088E70E94EA288C01EC0EFD1ECE15DF05FB
:1049300061F017FD0AC0FE01849164E670E00E94F8
:104940006B298C012196892B89F30E94EF29C801DC
:10495000DF91CF911F910F91FF90EF9008950895EF
:104960000C94AF24E1E6F5E080E092E0DF019C01E9
:104970001D9221503040E1F7F0936807E0936707FC
:104980008FEF9FEF909341048093400408950E941D
:10499000B0240E94AF2480933C0480FD02C080E8D4
:1049A00001C080E280933B040E94E4286DE070E047
:1049B00081EA95E00E948624892B11F080E0089519
:1049C00080913C0463E070E081FD03C08EE995E0D6
:1049D00002C08BE995E00E948624892B79F76DE06F
:1049E00070E08EE895E00E948624892B39F70E94BA
:1049F000892DDC01CB01805A9541AF4FBF4F809389
:104A0000630790936407A0936507B09366070E94BD
:104A1000B22481E080933F0480933E0410923D04D1
:104A2000089520913B0436E0839FC0011124629FCA
:104A3000800D911D1124811522E0920714F080E071
:104A400090E08F599A4F9093680780936707089575
:104A500080913F048823F9F00E94892DDC01CB016D
:104A6000805A9541AF4FBF4F80936307909364077F
:104A7000A0936507B093660780913E0481110BC037
:104A800062E070E08CE895E00E948624892B19F49E
:104A900081E080933E0480913E0408956F927F925E
:104AA0008F929F92AF92BF92CF92DF92EF92FF923E
:104AB0000F931F93CF93DF9380913F04882309F4D2
:104AC000DCC020914004309141042115310509F4E6
:104AD000D4C080913D048111D0C061E070E0082F06
:104AE00010E03B01082E02C0660C771C0A94E2F726
:104AF000A90146215721452B11F48F5FF0CF9091EA
:104B00003C04980165E0220F331F6A95E1F790FDA0
:104B100012C08295880F807680932C02220F232F5B
:104B2000221F330B319520932F02815E80932D023B
:104B30001092300212C045E0369527954A95E1F76C
:104B4000220F220F220F20932C0210922F02295F96
:104B500020932D0283E08093300224E630E047E08A
:104B600050E06AE272E088E70E949B29892B09F0F5
:104B700084C080913C0480FD23C0A80195E0440FCF
:104B8000551F9A95E1F74F595A4F04E610E020E27D
:104B900030E060E488E70E94C229892B09F06DC0EB
:104BA0000E942825E301C095D09580914004909102
:104BB0004104C823D923D0934104C09340045DC06D
:104BC00080E2EBE1F4E0DF011D928A95E9F785E0F0
:104BD000000F111F8A95E1F7ABEBB2E047EB52E013
:104BE000992493942D91EA018991AE01B801680F3F
:104BF000711D6F597A4F30E0255E3B4FF90197E008
:104C00007F01E21AF30AA92C01C0AA0CEA94EAF780
:104C10007B01B12CE70189917E018A21892E8B18B5
:104C2000D82DD770CD2E0D2E000CDD08C82F01C059
:104C3000CC0FDA95EAF7D194C194D108D7E0CD2210
:104C4000DD2401C08695CA94EAF78C2BD0808D298B
:104C50008083B39488E0B812DDCF915031969F3FA6
:104C600079F6C2E0AF3BBC0709F0BCCF04E610E028
:104C700020E230E04BE154E08CCFDF91CF911F91E7
:104C80000F91FF90EF90DF90CF90BF90AF909F90EB
:104C90008F907F906F90089580913F0490913E0493
:104CA000882389F0992369F062E070E08AE895E052
:104CB0000E948624892B19F080913E040895109259
:104CC0003E0490913E0481E08927089581E0089593
:104CD0000C9466260F931F9380913F04882399F1CB
:104CE00080916107909162070E94952DC29760F0B4
:104CF0000E947D2D909362078093610760E080E0C1
:104D00000E9411250E9468260E944E2580913E0433
:104D10008823C9F00E94892D0091630710916407D0
:104D20002091650730916607DC01CB01801B910B58
:104D3000A20BB30B8F3F9F4FAF4FBF4720F41F9184
:104D40000F910C944C261F910F910895CF93DF93F0
:104D5000EC01FB018281882309F43CC1C430FDE5EC
:104D6000DF0760F4CB3F9CE5D90788F49E01225011
:104D70003C452431310508F02EC109C0C236EDE5AD
:104D8000DE0729F0C63AFDE5DF0709F024C10E94DD
:104D90004D109093790480937804C1318CE5D80745
:104DA00009F4C6C008F042C0C930ECE5DE0709F4DA
:104DB0009BC000F5C5308CE5D80709F485C078F4B0
:104DC000C330ECE5DE0709F478C008F07AC0C230E1
:104DD000DC4509F0F5C0809178048160EFC0C730F0
:104DE0009CE5D90709F478C008F07AC0809178046E
:104DF0008061E4C0CD30FCE5DF0709F487C058F4DA
:104E0000CB309CE5D90709F479C008F07BC08091CC
:104E1000780488606FC0CF30FCE5DF0709F480C0FC
:104E200008F082C080917804877FC8C0CE3F9CE59F
:104E3000D90709F471C000F5C531FCE5DF0709F4B5
:104E400085C068F4C3319CE5D90709F475C008F042
:104E500095C00E943307809178048F77AFC0CC3F14
:104E6000FCE5DF07A9F108F054C0CB3FDC4509F0B1
:104E7000A7C08091790440C0C230EDE5DE0709F497
:104E800089C058F4C1158DE5D80709F45AC008F057
:104E900069C08091790482602FC0C236EDE5DE07DB
:104EA00009F47CC0C63AFDE5DF0709F481C0C330D0
:104EB000DD4509F085C080E06EC080917804826095
:104EC0007DC08091780416C080917804886076C097
:104ED0008091790482604FC08091780480626EC0B6
:104EE0008091780480646AC00E94330780917804BE
:104EF000806864C0846062C081603DC08091780435
:104F00008E7F5CC0809178048D7F58C0809178043A
:104F100016C08091790418C0809179048D7F2BC0D0
:104F2000809178048F7E4AC0809178048F7D46C03E
:104F3000809178048F7B42C080917804877F8B7F3B
:104F40003DC0809179048D7F8E7F15C0809178045B
:104F500082FB222720F991E0922790FB82F990FBB7
:104F600083F92CC080917904982F909591708E7F51
:104F7000892B90FB81F98093790422C00E9433072A
:104F80008091780487FB222720F991E0922790FBFB
:104F900087F914C081E00E94E41012C08091780467
:104FA00084FB222720F991E0922790FB84F906C028
:104FB00080917804982F909590FB80F980937804E5
:104FC00080917804909179040E945E100E943307CA
:104FD00080E001C081E0DF91CF910895CF93DF930E
:104FE00086319C4541F5EB010E94510F982F8A8133
:104FF0002091D8013091D901882379F09A7A81E003
:1050000009F480E080934204911102C069E201C07A
:1050100065E3C9010E94BE2C0AC08091420481113F
:1050200002C069E201C065E3C9010E94C92C0E9467
:10503000930F80E001C081E0DF91CF9108950F933D
:105040001F93CF93DF93C42FD22FFC01828188233B
:10505000C9F0409345040E947D2D909344048093B1
:10506000430480E28C0F883008F057C0C77081E09D
:1050700001C0880FCA95EAF7DF91CF911F910F9178
:105080000C940D0780914504481330C0809143046F
:10509000909144040E94952D8639910538F510E2CF
:1050A0001D0FCD17B9F080E28C0F883040F4C77027
:1050B00081E001C0880FCA95EAF70E9414071830F2
:1050C00028F581E09D2F977001C0880F9A95EAF727
:1050D0000E940D07802F0E9404071830F0F4D7704B
:1050E00081E001C0880FDA95EAF70AC080E28C0FF0
:1050F000883098F4C77081E001C0880FCA95EAF73C
:10510000DF91CF911F910F910C941407802FDF91A5
:10511000CF911F910F910C940407DF91CF911F91B4
:105120000F9108950F939C01CB01243F4CE5340768
:1051300031F188F4293DFCE53F07D9F02A3D4CE5E3
:10514000340779F1283D3C45A9F506E221EE41EE10
:1051500068ED7CE52BC0263FFCE53F07E1F0A8F0B9
:10516000273F3C4539F507E225EE46EE67EF7CE543
:105170001DC007E225EE45EE69ED7CE517C006E2AD
:1051800021EE40EE64EF7CE511C007E225EE44EE2F
:1051900065EF7CE50BC006E221EE42EE66EF7CE5B2
:1051A00005C008E221E045EE6AED7CE50E941F287B
:1051B00080E008C0FC018281882319F01092450428
:1051C00001C081E00F9108951092B9008CE08093A6
:1051D000B80008959F92AF92BF92CF92DF92EF9264
:1051E000FF920F931F93CF93DF93B82EEB010E9492
:1051F0007D2D6C01C431D10558F0CF3F8FEFD8071A
:1052000059F0CE0164E170E00E94EA347B0107C0EE
:10521000EE24E394F12C03C025E0E22EF12C84E887
:10522000A82E94EA992E1092BC009092BC000E9485
:105230007D2D8C018091BC0087FD08C00E947D2DD2
:10524000801B910B8E159F05A8F32AC08091B90091
:10525000887F883041F08091B900887F803119F0D3
:105260000FEF1FEF1FC0B092BB00A092BC000E94C6
:105270007D2D8C018091BC0087FD08C00E947D2D92
:10528000801B910B8E159F05A8F30AC08091B90071
:10529000887F883111F0803419F700E010E00EC0EB
:1052A0000EEF1FEFCF3F8FEFD80709F4BCCFC60139
:1052B0000E94952D8C179D0708F4B5CFC801DF918A
:1052C000CF911F910F91FF90EF90DF90CF90BF9003
:1052D000AF909F9008950F931F93CF93DF93EB01AF
:1052E0008093BB0084E88093BC000E947D2D8C01DC
:1052F0008091BC0087FD0EC0CF3F8FEFD807C1F370
:105300000E947D2D801B910B8C179D0788F38EEFDB
:105310009FEF0CC02091B900287F81E090E02832F7
:1053200011F480E090E0919581959109DF91CF9102
:105330001F910F910895CF92DF92EF92FF920F93FA
:105340001F93CF93DF936B018A017901B9010E940A
:10535000EA28E6010C0D1D1DC017D10761F424E9F0
:105360002093BC00DF91CF911F910F91FF90EF90A0
:10537000DF90CF90089597FDF2CFB70189910E94F9
:105380006B29EACFCF92DF92EF92FF920F931F9398
:10539000CF93DF93C62F6A017901B8010E94EA28F2
:1053A00097FD11C0B8018C2F0E946B29E601EC0C0F
:1053B000FD1CCE15DF0539F097FD05C0B8018991B8
:1053C0000E946B29F6CF24E92093BC00DF91CF9196
:1053D0001F910F91FF90EF90DF90CF90089584E997
:1053E0008093BC0008958EE14A9B02C08150E1F792
:1053F0004A9BFECF08955A9880E28A95F1F75A9A0F
:105400000895FC012AE02A95F1F728E090E080E079
:1054100031E040E14A95F1F7880F4A9B02C0816074
:10542000932700C0000040E14A95F1F7215089F729
:1054300020E12A95F1F729B100C0000030E13A954A
:10544000F1F722FB222720F992272081920F9083E7
:105450000895EF92FF920F931F93CF93DF931F92C4
:10546000CDB7DEB719828C017C01E60EF11C0E155A
:105470001F0551F00E94F329CE0101960E94012AD6
:10548000F80181938F01F3CF81E09981911180E040
:105490000F90DF91CF911F910F91FF90EF900895A2
:1054A000529A5A9A089552985A9AEA9AE9E6F0E07E
:1054B00080818F7C80830895615091E001C0990FB5
:1054C0006A95EAF720E031E0992361F0492F4823FB
:1054D00019F05A9A232701C05A9840E24A95F1F7E9
:1054E0009695F2CF222311F05A9A01C05A9880E281
:1054F0008A95F1F75A980895FF920F931F93CF93CF
:10550000DF93EC018C01060F111DC017D10741F08C
:10551000F9900E94FB2968E08F2D0E945C2AF5CF4C
:10552000DF91CF911F910F91FF9008951F920F92DD
:105530000FB60F9211240F931F932F933F934F9306
:105540005F936F937F938F939F93AF93BF93EF93EB
:10555000FF93CF93DF931F92CDB7DEB719820E94DE
:10556000F329CE0101960E94012A082F069506957F
:105570000695902F96959570202F2570920F292FC4
:10558000237096959695920F877089135FC08981D5
:1055900081115CC0063008F059C080E18A95F1F7AE
:1055A0005A9A529A82E08A95F1F700C05A9888E098
:1055B000089F80011124D801A552BE4F1696ED9187
:1055C000FC9117973097A9F06091AD027091AE02EF
:1055D00014962D913C911597260F371F11968D919A
:1055E0009C911297680F791F13964C9113978C9189
:1055F0000995F801E552FE4F6381662351F08091D1
:10560000AD029091AE0224813581820F931F0E94DA
:105610007C2A0E94FB2980E18A95F1F75A985298DA
:105620005A9A80E18A95F1F7F801E552FE4F6081C0
:10563000662351F08091AD029091AE0221813281BA
:10564000820F931F0E94292A0E94F3290F90DF9155
:10565000CF91FF91EF91BF91AF919F918F917F91EA
:105660006F915F914F913F912F911F910F910F90EB
:105670000FBE0F901F9018950F931F93CF93DF933A
:10568000863091050CF06DC0EC01F894529A5A984E
:1056900085E08A95F1F700009C2F969595702C2F48
:1056A0002570920F892F83709695969523E0CC0FE5
:1056B000DD1F2A95E1F7980F8E01092B0E94FB2927
:1056C00084E08A95F1F700C068E0802F0E945C2A90
:1056D00080E18A95F1F752985A9A4A9902C000C01F
:1056E000FCCF87E090E04A9B08C0019721F4529AD2
:1056F0005A9A789436C000C0F6CFFE01E552FE4FAC
:105700006381662381F08091AD029091AE02248185
:105710003581820F931F0E94292A811104C0529A59
:105720005A9A78941FC00E94F32980E28A95F1F773
:105730005A98529A80E18A95F1F7C552DE4F6881F6
:10574000662351F08091AD029091AE0229813A8199
:10575000820F931F0E947C2A0E94FB29789481E08B
:1057600001C080E0DF91CF911F910F910895909338
:10577000C1028093C002089590934C0480934B041F
:1057800008950E944116811103C080914604089536
:10579000E0914B04F0914C04309721F00190F0819E
:1057A000E02D099480E00895E0914B04F0914C04C1
:1057B000309799F020913D02222359F020917804EE
:1057C00027FF07C0DC012C9111962C93119726E03E
:1057D0002C930280F381E02D09940895E0914B040D
:1057E000F0914C04309739F022E0DC012C930480D6
:1057F000F581E02D099408952091490430914A04DF
:105800002817390771F090934A0480934904E09176
:105810004B04F0914C04309721F00680F781E02D85
:1058200009940895209147043091480428173907B6
:1058300071F09093480480934704E0914B04F091F9
:105840004C04309721F00084F185E02D09940895EF
:10585000FC01329680913D02882331F080917804DA
:1058600087FF02C09EE101C096E080E0915028F0E1
:1058700021912223D9F38F5FF9CF0895662351F147
:1058800020913D022223E9F02091780427FF19C0DE
:10589000462F4695469546954E31E0F4677021E0D7
:1058A00030E002C0220F331F6A95E2F7FC01E40FDB
:1058B000F11D828190E02823392381E0232B69F4B4
:1058C00009C0FC01329608962191621729F0E81769
:1058D000F907D1F780E0089581E008959C01FC016B
:1058E00032969FEF80E04191461789F09F3F19F46F
:1058F000411101C0982F8F5F8630A9F79F3F39F083
:10590000F901E90FF11D97FDFA9562830895089555
:105910009C012A5F3F4FFC014281461301C0128265
:10592000019682179307B9F70895262F2695269595
:1059300026952E3168F4FC01E20FF11D677021E01D
:1059400030E001C0220F6A95EAF78281282B22837A
:105950000895262F2695269526952E3170F4FC0164
:10596000E20FF11D677021E030E001C0220F6A955F
:10597000EAF72095828128232283089520913D0211
:10598000222329F02091780427FD0C94952C0C9467
:105990006E2C20913D02222329F02091780427FDCE
:1059A0000C94A92C0C94882C20913D02FC01329679
:1059B000222331F08091780487FF02C08EE101C07C
:1059C00086E0DF011D928A95E9F7089508950C9409
:1059D000E62C83E080934D040C94E72C811102C0E7
:1059E00081E001C082E080934D040C94E72C0C947C
:1059F000EE2C81E080934D040C94E72C0C94F92C50
:105A000008950C94002D0C94002D0C94002DCF9330
:105A10000E94052D0E94B6150E94032DC0E08C2F18
:105A20000E947D14811104C0CF5FC830C1F701C04E
:105A300081E0CF91089508951F920F920FB60F92B3
:105A400011248F939F93AF93BF9380914E04811144
:105A500013C08091690790916A07A0916B07B0917C
:105A60006C074196A11DB11D8093690790936A0749
:105A7000A0936B07B0936C07BF91AF919F918F91EB
:105A80000F900FBE0F901F90189580917107843072
:105A900031F10E94ED0410924E0420E488E190E080
:105AA0000FB6F894A895809360000FBE2093600015
:105AB00083B7817F846083BF83B7816083BF78941D
:105AC000889583B78E7F83BF0FB6F894A895809191
:105AD0006000886180936000109260000FBE08959E
