:100000000C9460060C947D060C947D060C949D3037
:100010000C947D060C947D060C947D060C947D0654
:100020000C947D060C947D060C94A7260C945C25FC
:100030000C9456280C947D060C947D060C947D0639
:100040000C947D060C947D060C947D060C947D0624
:100050000C947D060C94ED270C947D060C947D0683
:100060000C947D060C947D060C947D060C947D0604
:100070000C947D060C947D060C947D060C947D06F4
:100080000C947D060C947D060C947D060C947D06E4
:100090000C947D060C947D060C947D060C947D06D4
:1000A0000C947D060C947D060C947D06A60BA60B85
:1000B000DB0BDB0B4B0C010E010E010E690C470D27
:1000C0005A0D5A0D252C4C2CE42D4C2CE42D942C3F
:1000D000B72CE42DA62DB92D2020202020000000D3
:1000E0000000000000000000000000000000000010
:1000F0000000000000000000000000000000000000
:1001000000007E0F00D4FFFFFFC700000078000052
:100110000000000000002A2B280000000000000062
:1001200000000000000000000029000000002C1E5C
:100130003420212224342627252E362D3738271E19
:100140001F202122232425263333362E37381F043F
:1001500005060708090A0B0C0D0E0F1011121314D7
:1001600015161718191A1B1C1D2F3130232D350495
:1001700005060708090A0B0C0D0E0F1011121314B7
:1001800015161718191A1B1C1D2F3130354C3A0043
:1001900000DA0281FFD9F1DB20A4A62EAF00A0C0B7
:1001A00000A1C800AED580A81FD300408D14200048
:1001B000636F726E65008081828384A0A1A2A3A474
:1001C000C0C1C2C3C400209495962020B4B5B62007
:1001D00020D4D5D62000209798992020B7B8B920F0
:1001E00020D7D8D92000209A9B9C2020BABBBC20C5
:1001F00020DADBDC2000209D9E9F2020BDBEBF209A
:1002000020DDDEDF20004C656674005157455259F1
:100210000044766F726B004D6F64653A0041524640
:10022000202058595A5A590020208A2020208B8C8F
:100230008D8EAAABACAD20CACBCCCDCE0020202079
:10024000202020202020202020202020008586879C
:100250008889A5A6A7A8A9C5C6C7C8C9002B003705
:10026000003600330013001C00396104001200083E
:100270000018000C00E200380014000D000E001BF6
:1002800000000000000000E100A85D2C002A000F23
:10029000000B0006000A00090034001600110017C8
:1002A000001500070028621D0019001A0010000543
:1002B00000000000000000E000A95D2C002B0014ED
:1002C000001A000800150017003961040016000725
:1002D0000009000A00E2001D001B000600190005CD
:1002E00000000000000000E100A85D2C002A0013BF
:1002F0000012000C0018001C00340033000F000E28
:10030000000D000B00286238003700360010001185
:1003100000000000000000E100A95D2C002900376A
:100320000024002500260000002A003600210022BB
:100330000023002700280006531E001F002000F1A4
:10034000000000000000000100A85D2C004C00002F
:10035000000000520000000000F100ED004F0051CD
:10036000005000AE00F000EE00EF00F200000000D0
:1003700000000000000000E300A95D280021023712
:100380000236022D001F022202221427026400649A
:10039000022402351434023802300030022F021FCA
:1003A00014000000000000E100A85D2A002A001EE1
:1003B000022E0030142F1420142F002D022E02269E
:1003C0000225022302200235023500321434141EA5
:1003D000140000000000000000A95D2C00005CABD0
:1003E0005D0000000000000153C35CC65CC85CCA2D
:1003F0005CCC5C0553C45CC75CC95CCB5CCD5C0069
:1004000000000000000000E100A85D2C0000003E9C
:10041000003D003C003B003A0044004300420041E4
:100420000040003F00C55C0000000000000000002C
:1004300000000000000000E300A95D2C00010001A5
:1004400000010001000100010001000100010001A4
:100450000001000100010001000100010001000194
:100460000000000000000001000100010001000187
:10047000000100520001000100010001004F005185
:100480000050000100010001000100010001000115
:10049000000000000000000100010001002B0037F7
:1004A000003600330013001C0039610400120008FC
:1004B0000018000C00E200380014000D000E001BB4
:1004C00000000000000000065307512C002A000F16
:1004D000000B0006000A0009003400160011001786
:1004E000001500070028621D0019001A0010000501
:1004F00000000000000000E000A95D2C002A000FB1
:10050000000B0006000A0009003400160011001755
:100510000015000700E0001D0019001A001000057A
:1005200000000000000000010001002C002A000F64
:10053000000B0006000A0009003400160011001725
:10054000001500070028621D0019001A00100005A0
:1005500000000000000000E000A95D2C0000AF00DA
:10056000AE05010980A101850319012AB700150113
:1005700026B700950175108100C0050C0901A10185
:10058000850419012AA002150126A0029501751003
:100590008100C005010906A1018506050719E029AA
:1005A000E715002501950875018102050719002945
:1005B000EF1500250195F075018102050819012943
:1005C00005950575019102950175039101C005011D
:1005D0000906A101050719E029E71500250195087D
:1005E000750181029501750881010507190029FF30
:1005F000150026FF009506750881000508190129D8
:1006000005950575019102950175039101C00902D7
:100610003B00020100A0FA090400000103010100EF
:100620000921110100012240000705810308000192
:100630000904010001030000000921110100012249
:100640006D00070582032000011201000200000076
:1006500008534601000100010200010C0343006F32
:100660000072006E0065000000100366006F006FEE
:10067000007300740061006E0000000403090400B0
:1006800000000000003E5B4F5B3E003E6B4F6B3E48
:10069000001C3E7C3E1C00183C7E3C18001C577D14
:1006A000571C001C5E7F5E1C0000183C180000FFF9
:1006B000E7C3E7FF00001824180000FFE7DBE7FFAF
:1006C0000030483A060E00262979292600407F0589
:1006D000050700407F05253F005A3CE73C5A007F54
:1006E0003E1C1C0800081C1C3E7F0014227F2214A4
:1006F000005F5F005F5F0006097F017F0000668981
:10070000956A0060606060600094A2FFA294000897
:10071000047E04080010207E20100008082A1C080F
:1007200000081C2A0808001E10101010000C1E0CD7
:100730001E0C0030383E383000060E3E0E0600001B
:10074000000000000000005F00000000070007003C
:1007500000147F147F1400242A7F2A120023130818
:10076000646200364956205000000807030000006C
:100770001C224100000041221C00002A1C7F1C2A70
:100780000008083E080800008070300000080808D3
:100790000808000000606000002010080402003E0D
:1007A0005149453E0000427F400000724949494698
:1007B000002141494D33001814127F100027454590
:1007C0004539003C4A4949310041211109070036A9
:1007D0004949493600464949291E000000140000D5
:1007E00000004034000000000814224100141414DA
:1007F0001414000041221408000201590906003EA9
:10080000415D594E007C1211127C007F49494936E6
:10081000003E41414122007F4141413E007F494924
:100820004941007F09090901003E41415173007FA0
:100830000808087F0000417F4100002040413F013F
:10084000007F08142241007F40404040007F021C8E
:10085000027F007F0408107F003E4141413E007F3F
:1008600009090906003E4151215E007F0919294608
:100870000026494949320003017F0103003F4040FF
:10088000403F001F2040201F003F4038403F006392
:1008900014081463000304780403006159494D43AC
:1008A00000007F4141410002040810200000414146
:1008B000417F00040201020400404040404000002B
:1008C00003070800002054547840007F284444382F
:1008D00000384444442800384444287F00385454A5
:1008E00054180000087E0902001824241C78007F98
:1008F000080404780000447D4000002040403D0092
:10090000007F102844000000417F4000007C0478F4
:100910000478007C08040478003844444438007C9F
:100920001824241800182424187C007C08040408C7
:100930000048545454240004043F4424003C4040E4
:10094000207C001C2040201C003C4030403C0044E7
:1009500028102844004C9090907C004464544C44EF
:10096000000008364100000000770000000041361A
:100970000800000201020402003C2623263C00007D
:1009800000000000000000C0E0F0F8F81800C0F01F
:10099000FCFEFFFFFFFFFFFFFF7E000000000000E6
:1009A00000000000000000E0101090D0901010E057
:1009B0000000000000000000000000C00000000077
:1009C000000000C0F0FCFFFFFFFCF0C000000000D2
:1009D0000000000000000000000000000000000017
:1009E0000000000000000000000000000000000007
:1009F000000000000000008080404020201010080F
:100A00000810102020404080808080C0C0E0E0F0CE
:100A1000F0F8F8F0F0E0E0C0C08080808040402036
:100A20002010100808101020204040808080804056
:100A3000C060A050B058A850B060A040C0808000F6
:100A4000F8FCFEFFE000FFFFFFFFFFFF80FFFFFF5E
:100A5000FFFFFFFFFFFF1F07010000000080404075
:100A6000404040404080008F505150DF5051508FE7
:100A7000008040404040404040800000000000C0F6
:100A8000F0FCF7C707070707070707C7F7FCF0C021
:100A90000000000000000000000000000000000056
:100AA0000000000000000000000000000000000046
:100AB0000000000000000088885D5D3E3E7C7CF800
:100AC000F87C7C3E3E5D5D888888885555232347A9
:100AD000478F8F47472323555588888888D5D5E287
:100AE000E2C4C48888C4C4E2E2D5D5888888885D19
:100AF000D56BB66DD6ADDA6DD66BB65DD588880090
:100B0000030F1F3F3F3F3F1F1F3F3F7F7F7F3F3F01
:100B10001F3F7F7F7F7F7C7878381C0F003F4044E9
:100B20004E554444443F003F4044485F4844403FA2
:100B3000003F444444554E44403F0040707C7F7F1A
:100B40007F7F7F7F7F7C7040707C7F7F7F7F7F7F18
:100B50007F7C7040000000000000000000000000EA
:100B60000000000000000000000000000000000085
:100B7000000000000000000000010102020404085F
:100B80000804040202010100000000010102020445
:100B9000040808040402020101000000000101032E
:100BA0000307070F0F0707030301010000000001FF
:100BB00001030205060D0A050603020101000000FB
:100BC000010101010101010101020202020202020E
:100BD00002020303030303030303040404040404E1
:100BE00004050505050506060606060707070707A7
:100BF00008080808090909090A0A0A0B0B0B0C0C5A
:100C00000C0D0D0D0E0E0E0F0F0F101011111112F5
:100C10001213131414151516161717181819191A74
:100C20001A1B1B1C1D1D1E1E1F20202122222324D7
:100C300024252626272829292A2B2C2D2D2E2F3016
:100C4000313232333435363738393A3B3C3D3E3F2A
:100C5000404142434445464748494A4C4D4E4F5017
:100C6000515354555658595A5B5D5E5F61626465D5
:100C70006668696B6C6D6F7072737577787A7B7D5F
:100C80007E8082838587888A8C8E8F9193959698B3
:100C90009A9C9EA0A2A3A5A7A9ABADAFB1B3B5B7CF
:100CA000BABCBEC0C2C4C6C9CBCDCFD1D4D6D8DBA6
:100CB000DDDFE2E4E7E9EBEEF0F3F5F8FAFDFF0043
:100CC00011241FBECFEFDAE0DEBFCDBF12E0A0E0FF
:100CD000B1E0E4E5F6E602C005900D92AA38B1074E
:100CE000D9F727E0AAE8B2E001C01D92A735B20704
:100CF000E1F70E94FB0E0C9428330C94000088232B
:100D000039F1682F8CEF860F813A28F485E694E05C
:100D10000E947F280CC080E2860F883050F46770F4
:100D200081E001C0880F6A95EAF70E947F200C9449
:100D300086208BE5860F833020F480E090E00C94D1
:100D4000F228685A673120F480E090E00C94DC28A7
:100D50000895CF93882309F46DC09CEF980F913AC2
:100D6000C8F5C82F80916D018823E1F080911105AD
:100D700087FF18C0EC2FE695E695E695F0E0EB5975
:100D8000FB4F8281282F30E04C2F477081E090E0AC
:100D900002C0880F991F4A95E2F782239323892B7B
:100DA00061F412C0E7E6F4E08DE694E02191C21709
:100DB00021F08E179F07D1F707C06C2F85E694E0CE
:100DC0000E947F280E9486206C2F85E694E00E9476
:100DD000A72813C090E2980F983090F4877021E014
:100DE00030E0A90102C0440F551F8A95E2F7CA01FD
:100DF00090912503892B80932503CF910C94862015
:100E0000EBE5E80FE33040F4F0E0EC57FE4F808173
:100E100090E0CF910C94F228885A873158F4E82F4B
:100E2000F0E0EE0FFF1FE957FE4F80819181CF91D7
:100E30000C94DC28CF9108951F93CF93DF93CDB707
:100E4000DEB767970FB6F894DEBF0FBECDBF4B8BF2
:100E50005C8B6D8B7E8B8F8B2E893F8921153105A5
:100E600031F05F3F31F481E04F3F19F403C081E07E
:100E700001C080E080FD09C080918F0290919002B6
:100E800001969093900280938F0261111092260335
:100E900086E0FE013D96DF01982F1D929A95E9F7B5
:100EA0004D875E876F87398B288BDE0117960190FF
:100EB0000D928A95E1F7CE0107960E94FE228111DC
:100EC0003EC086E0FE013796DE01119601900D923C
:100ED0008A95E1F7FF81E8856A857B856115710553
:100EE00031F0EF3F31F481E0FF3F19F403C081E0BE
:100EF00001C080E080FD23C02091A90430E0C90139
:100F00000196877099274091DA0450E0841795077D
:100F100079F1F983EA837D836C8396E0929FD00117
:100F2000939FB00D1124A655BB4FFE013196019041
:100F30000D929A95E1F78093A9040E94E72016E0AC
:100F40008091DA049091A9048917F9F0189FC001E3
:100F5000112486559B4F0E94FE228823B1F0809178
:100F6000DA0490E00196877099278093DA04E8CF3D
:100F70000E949F241092A9041092DA04E3EAF4E09C
:100F800086E0DF011D928A95E9F767960FB6F8941F
:100F9000DEBF0FBECDBFDF91CF911F91089588EDC9
:100FA00090E00C94942A4F925F926F927F928F926E
:100FB0009F92AF92BF92CF92DF92EF92FF920F93E8
:100FC0001F93CF93DF93CDB7DEB72A970FB6F89470
:100FD000DEBF0FBECDBFFC010081D1808381948133
:100FE000892B41F044244A94D41006C091E00F3F6D
:100FF00019F403C091E001C090E090FDE5C67F01C7
:1010000085E0DE01169601900D928A95E1F7F701D1
:1010100022818E819F81222349F00E945D21182F19
:10102000682F8E819F810E94FF2103C00E94D221E0
:10103000182F20E3129FF001112436E0D39EE00D1B
:10104000F11D1124E00FF11DEE0FFF1FE35AFD4FBC
:10105000059114910A3A8DE5180751F148F4083AC0
:10106000EDE51E0779F0093AFDE51F07B9F04DC21D
:101070000B3A2DE5120709F4E7C00C3A3DE51307DA
:1010800019F143C2F7018281882311F082E00BC07D
:1010900082E00E9451220E94042A2BC6F70182811D
:1010A000882321F083E00E94B022F5CF83E0F1CFC6
:1010B000F7018281882321F084E00E94B02219C6C2
:1010C00084E00E94512215C6F7018281882351F0E5
:1010D0000E944A2890938D0280938C0286EE0E9493
:1010E000A90607C686EE0E947F0680918C02909129
:1010F0008D020E942F288639910508F0FAC50EE866
:1011000011E09AE0692EF8012491222309F4F1C537
:10111000213009F042C031968491813029F40E5F6C
:101120001F4FF801849189C0823039F40E5F1F4F40
:10113000F80184910E94A90684C0833039F40E5FBF
:101140001F4FF80184910E947F067BC0843009F014
:1011500077C00E5F1F4FF801249180E090E030E0EF
:10116000205331092A30310568F4689EA001699E38
:10117000500D1124C901840F951F0F5F1F4FF801F7
:101180002491EDCF009709F45CC0EFE9FFE03197BF
:10119000F1F700C000000197F5CFE22FF0E0E25F29
:1011A000FE4F7490822F86958695869590E0FC017F
:1011B000E250FF4FC4902770D12C022E02C0D5946C
:1011C000C7940A94E2F7F1E0CF22DD24FC01E2515A
:1011D000FF4FA490B12C022E02C0B594A7940A949C
:1011E000E2F731E0A322BB24FC01E252FF4F8490DE
:1011F000912C02C0959487942A95E2F781E0882289
:101200009924C114D10419F081EE0E94A906A114F9
:10121000B10419F086EE0E94A906872D0E94C5240C
:10122000AB2819F086EE0E947F06CD2819F081EEDA
:101230000E947F06892829F08CE20E94C52401C003
:101240008F010F5F1F4F5FCFF7018281882399F0D5
:101250000E940E2E80914605837011F410926E014B
:10126000809146058C7F816080934605809145057D
:10127000816080934505F7018281882309F4AAC122
:10128000109204050430FDE51F0758F40B3F2CE5D0
:10129000120780F4C80182509C45449708F084C12D
:1012A00009C002363DE5130729F0063A8DE5180717
:1012B00009F07AC10E94E6189093120580931105F7
:1012C00001319CE5190709F4C6C008F042C0093095
:1012D000FCE51F0709F49BC000F505303CE513074A
:1012E00009F485C078F403309CE5190709F478C047
:1012F00008F07AC002301C4509F0F7C08091110552
:101300008160F1C007302CE5120709F478C008F0BD
:101310007AC0809111058061E6C00D308CE5180718
:1013200009F487C058F40B30ECE51E0709F479C0C6
:1013300008F07BC08091110588606FC00F302CE5EC
:10134000120709F480C008F082C080911105877FE0
:10135000CAC00E3F8CE5180709F471C000F50531CD
:10136000ECE51E0709F485C068F403312CE512078B
:1013700009F475C008F095C00E949F248091110562
:101380008F77B1C00C3F8CE51807A9F108F054C065
:101390000B3F1C4509F0A9C08091120540C00230E6
:1013A000FDE51F0709F489C058F401153DE5130751
:1013B00009F45AC008F069C08091120582602FC0FC
:1013C00002369DE5190709F47EC0063AEDE51E07D1
:1013D00009F483C003301D4509F087C060E06EC08A
:1013E0008091110582607FC08091110516C08091A7
:1013F0001105886078C08091120582604FC080918D
:101400001105806270C08091110580646CC00E94DB
:101410009F2480911105806866C0846064C08160EB
:101420003DC0809111058E7F5EC0809111058D7F3A
:101430005AC08091110516C08091120518C0809184
:1014400012058D7F2BC0809111058F7E4CC080913D
:1014500011058F7D48C0809111058F7B44C080911C
:101460001105877F8B7F3FC0809112058D7F8E7F16
:1014700015C08091110582FB222720F991E0922767
:1014800090FB82F990FB83F92EC080911205982F72
:10149000909591708E7F892B90FB81F98093120536
:1014A00024C00E949F248091110587FB222720F9E8
:1014B00091E0922790FB87F916C061E08EE090E002
:1014C0000E94653212C08091110584FB222720F909
:1014D00091E0922790FB84F906C080911105982F26
:1014E000909590FB80F98093110560911105109102
:1014F000120584E090E00E946532612F82E290E064
:101500000E9465320E949F24F4C3043F8CE51807B3
:1015100049F406E221EE40EE64EF7CE5C7010E944B
:101520001B29E7C3053F9CE51907F8F4093DECE5E5
:101530001E0731F407E225EE45EE69ED7CE5EECFBE
:101540000A3DFCE51F0731F408E221E045EE6AEDB3
:101550007CE5E4CF083D2CE5120709F08CCE06E2CD
:1015600021EE41EE68ED7CE5D9CF063F3CE513075F
:1015700031F406E221EE42EE66EF7CE5CFCF063F86
:101580008CE5180730F407E225EE44EE65EF7CE5C4
:10159000C5CF073F9CE5190709F06DCE07E225EEA0
:1015A00046EE67EF7CE5BACF0631ECE51E0721F584
:1015B000809125038A7A91E009F490E090938E025D
:1015C000882311F065E301C069E285E694E00E949A
:1015D000A7280FC00631FCE51F0709F040C0809125
:1015E0008E02882309F4ACC365E385E694E00E948B
:1015F0007F280E9486207DC30B352DE5120749F117
:1016000058F401158CE51807B1F00F3D1C4509F0A1
:1016100040C00E9404206DC30C35EDE51E07D9F0D3
:101620000D351D45B1F58091120582FB882780F9A3
:1016300091E0892711C00E949F242FEF34E38CE0B2
:10164000215030408040E1F700C000000E94DC27BC
:1016500050C381E001C080E00E9493221AC08091B3
:10166000250382720A3C2CE5120709F498C308F49A
:1016700021C30E3CFCE51F0709F4A2C308F46CC3A8
:10168000073DECE51E0708F434C30E351D4509F48B
:1016900030C3F70182810081D180882359F0802FE7
:1016A0009D2D0E945D21182F682F802F9D2D0E9457
:1016B000FF2105C0802F9D2D0E94D221182F20E3ED
:1016C000129FF001112436E0D39EE00DF11D11248C
:1016D000E00FF11DEE0FFF1FE35AFD4F859194912E
:1016E0000E945D17182F092F882EF701D280B58030
:1016F000B2948FE0B8228091DB048770B9F0DD20CE
:10170000A9F0892F807F803421F080E2810F88301A
:1017100068F08091120582FD09C082E00E94762265
:101720008091DB048770AA24A3948111A12C902EB0
:101730009294AFE09A22892D90E08C30910508F0C8
:1017400060C2FC01EA5AFF4F0C940C33902F9F703B
:10175000802F807FC92E19F0C294F0EFCF22DD20B8
:10176000B9F0CC2009F43AC280E2810F883010F041
:10177000811006C080912503C82AC092250305C0A8
:1017800080912603C82AC09226030E94862026C282
:10179000812F0E947F06CC2009F433C280E2810FA2
:1017A000883090F1882081F1C09480912603C8226E
:1017B000C09226032CC0902F9F70802F807FC92E4F
:1017C000803219F0C294E0EFCE22882021F0F1E0BF
:1017D0008F16D1F14AC08091120582FF1BC0DD2017
:1017E00069F0CC2039F080912503C82AC0922503E6
:1017F0000E94862080E00E94A90603C280E00E9429
:101800007F06CC2009F4FDC18C2D0E947F200E9410
:101810008620F7C1DD2071F080912703B11002C04E
:101820008C291AC0442443948C29B41015C00E94FA
:101830007520E7C1BB2029F055245394B51409F451
:10184000E0C10E946F2023C0DD2049F075E0672EC3
:101850006B1408F4D6C18C2D0E94BB24D2C164E065
:10186000762E7B1408F4CDC112C0DD2019F0BB2008
:1018700091F3B4C1BB2059F029E38212BFC13FEFFD
:1018800087EE93E0315080409040E1F7B5C18C2D58
:101890000E94B424B6C1802F86958695837019F076
:1018A000813061F0AEC1DD2021F0812F902F937047
:1018B00002C080E090E00E94F228A9C1DD2021F062
:1018C000812F902F937002C080E090E00E94DC286E
:1018D0009EC1802F837009F069C0D11096C1912FED
:1018E000929596959770990F990F812F8F70482E2A
:1018F000512C612C712C092E04C0440C551C661C03
:10190000771C0A94D2F714FF12C04FE050E060E059
:1019100070E004C0440F551F661F771F9A95D2F7D9
:10192000DB01CA0180959095A095B09503C080E039
:1019300090E0DC01602F669566956370623019F166
:10194000C8F42091190330911A0340911B03509160
:101950001C03613059F084299529A629B729BC01B7
:10196000CD0162237323842395230AC0422A532A7C
:10197000642A752ABC01CD01642975298629972915
:101980000E94D12242C184299529A629B7294090D5
:10199000190350901A0360901B0370901C03BC0144
:1019A000CD016425752586259725EACFDD2019F020
:1019B000802F817001C08695882309F426C1912F5C
:1019C000929596959770990F990F812F8F70482E49
:1019D000512C612C712C092E04C0440C551C661C22
:1019E000771C0A94D2F714FF12C04FE050E060E079
:1019F00070E004C0440F551F661F771F9A95D2F7F9
:101A0000DB01CA0180959095A095B09503C080E058
:101A100090E0DC01602F6695669563706230D9F0C6
:101A200068F520919F023091A0024091A10250914F
:101A3000A202613059F084299529A629B729BC0151
:101A4000CD0162237323842395231EC0422A532A87
:101A5000642A752A13C084299529A629B72940909C
:101A60009F025090A0026090A1027090A202BC015F
:101A7000CD01642575258625972506C0BC01CD01BD
:101A800064297529862997290E944722BEC0E02F24
:101A9000EF70CE2EDD2039F08E2F0E94B022812FE4
:101AA0000E94BB24B2C0812F0E94B4248C2D0E94BE
:101AB0005122ABC0812FF2EF8F1609F44AC0F815FE
:101AC00048F050EF452E841479F041EF542E8514E0
:101AD000D9F17FC033EF632E861409F441C024EF9F
:101AE000722E871469F175C0DD2021F124E02B15D9
:101AF00008F487C0202F2F7181E090E0A0E0B0E0D3
:101B0000AC01BD0104C0440F551F661F771F2A9505
:101B1000D2F780919F029091A002A091A102B09172
:101B2000A2022A013B01482659266A267B26C301C8
:101B3000B2012BC095E0592E5B1408F462C0DACFD5
:101B40008091120582FF24C0DD2029F0802F8F7143
:101B500033C0DD20D9F3802F8F710E94512251C0F4
:101B6000DD2081F0202F2F7181E090E0A0E0B0E037
:101B7000BC01CD0104C0660F771F881F991F2A95ED
:101B8000D2F703C060E070E0CB010E94472239C069
:101B9000DD20A9F0202F2F71C22E822F0E94B022AB
:101BA0008091120582FD07C038E0C39EC001112458
:101BB00083608093DB048C2D0E94B02222C081E0E0
:101BC0000E94762281E08B15E0F482E00E9476226A
:101BD00018C0DD2029F0BB2009F4B8CF812F0BCE2F
:101BE000BB2009F4B8CF893349F49FEFE7EEF3E067
:101BF0009150E040F040E1F700C00000812F0E94CA
:101C00007F0688EF890D843010F40E940829812F07
:101C1000902F0E94DB22811105C010929002109239
:101C20008F0211C0DD2019F0B110F7CF0CC0B11038
:101C3000F4CF80918F0290919002029771F7812FDB
:101C40000E94C524EACFAA20A9F08091DB0480FD80
:101C500011C0F70112828595859585950E94B02265
:101C6000C7010E94D3078091DB04859585958595F2
:101C70000E94512285E0F701DE01119601900D923C
:101C80008A95E1F789819A810E94D2219A8120E385
:101C9000829FF001112436E0939FE00DF11D112485
:101CA0008981E80FF11DEE0FFF1FE35AFD4F85916B
:101CB00094918AC0063C9CE5190709F461C008F0BC
:101CC00041C0043CFCE51F0709F450C008F053C0B4
:101CD000033C1C4509F0DDCC9091460581E0892745
:101CE0008093460510926E01809145058160809336
:101CF00045058091DB04877009F466C0F701828195
:101D0000882309F461C08091120582FD5DC082E0E4
:101D10002A960FB6F894DEBF0FBECDBFDF91CF91EC
:101D20001F910F91FF90EF90DF90CF90BF90AF90F9
:101D30009F908F907F906F905F904F900C94762241
:101D400069E253CC083C9CE51907F9F018F545E029
:101D50005CE16CEF7BE131C00C3C3CE5130721F109
:101D600040F548ED5BE16CEC7BE127C04EE05CE1C7
:101D700067E17CE122C047E15CE16EE07CE11DC0EF
:101D80004CEF5BE165E07CE118C044EE5BE160EFA5
:101D90007BE113C040EF5BE164EE7BE10EC04CECF5
:101DA0005BE168ED7BE109C044E25BE162E37BE17A
:101DB00004C042E35BE164E27BE10E94FE2999CF2B
:101DC00081E00E94A72A95CF2A960FB6F894DEBF2D
:101DD0000FBECDBFDF91CF911F910F91FF90EF907C
:101DE000DF90CF90BF90AF909F908F907F906F903B
:101DF0005F904F900895CF93DF93CDB7DEB72C97C8
:101E00000FB6F894DEBF0FBECDBF84B7877F84BF07
:101E10000FB6F894A8958091600088618093600067
:101E2000109260000FBE90E080E80FB6F8948093A7
:101E30006100909361000FBE85B7806885BF85B74C
:101E4000806885BF89EE93E190938B0280938A022C
:101E50000E94A0250E9446268091E2008460809323
:101E6000E200789480913B058823A1F01091E9006D
:101E70001F709091EC00892F817090FD80E8182BE5
:101E80001092E9008091E80083FD0E943F2B1F70B3
:101E90001093E90082E084BD93E095BD9AEF97BD71
:101EA00080936E001092910210929202109293020F
:101EB000109294020E94C116809304010E94C116E0
:101EC00081110E9457308091040180910401811199
:101ED00002C094E001C090E090939E0284E0891BD0
:101EE00080939D0202E711E056E7E52E51E0F52EC2
:101EF000D8018D918D018F3F11F00E94E416E016FC
:101F0000F106B1F706E711E04CE7E42E41E0F42ECC
:101F1000F80181918F018F3F11F00E94E416E016C5
:101F2000F106B1F788E0E3EAF2E0DF01282F1D9225
:101F30002A95E9F7E5E9F2E0DF011D928A95E9F7D4
:101F400080E090E00E944F32893E9E4F11F00E9447
:101F5000042082E090E00E9447328093AB020E940E
:101F6000E61890931205809311050E94F718EFE38D
:101F7000FCE93197F1F700C000000E94F7180E94B9
:101F8000C116811102C0E4E001C0E0E0F0E0ED55CF
:101F9000FD4F808181FF08C06FEF7FEF80E090E010
:101FA0000E9483320E94DC2783E090E00E94473247
:101FB000682F70E080E090E00E94D122109291039F
:101FC000EAEAF3E08AEB93E02FEF3FEF21933193BE
:101FD0008E179F07D9F710926803E1E8F3E081E9D3
:101FE00093E02FEF3FEF219331938E179F07D9F79F
:101FF00080E090E00E944F32893E9E4F21F00E9487
:1020000004200E940E2E46E050E06CE170E086E471
:1020100095E00E94373210924505809146058C7FED
:1020200011F40E940E2E83E08093D40280E280930C
:102030004C050E94EB2E6DE070E083EA91E00E9477
:10204000C02A892B09F043C08091D40263E070E07C
:1020500081FD3AC080EA91E00E94C02A892BB9F53F
:102060006DE070E080E991E00E94C02A892B79F54B
:102070000E943E28DC01CB01805D9A48AF4FBF4FE4
:102080008093FC049093FD04A093FE04B093FF049E
:10209000EFE4F5E080E092E0DF019C011D92215029
:1020A0003040E1F7F0935607E09355078FEF9FEF2D
:1020B00090934E0580934D0581E0809301058093B8
:1020C00000051092D50203C08DE991E0C5CF0E94B2
:1020D000C116811102C00E945A3085E091E09093B0
:1020E00009058093080520E4622E22242394312CD4
:1020F00080913B05853009F054C000E112E18091E8
:102100003B05853009F043C080913B05843069F17F
:1021100081E00E94121F0E942C1F81E00E94121F6A
:102120000E948E2910920C0588E190E00FB6F89479
:10213000A895809360000FBE6092600083B7817F96
:10214000846083BF83B7816083BF7894889583B7A9
:102150008E7F83BF0FB6F894A89580916000886148
:1021600080936000109260000FBE80913A05882332
:1021700009F4C5CF0E94F718E3EAF2E081918111DA
:1021800012C3ABEAB2E0AE17BF07C1F7B8CF0E94E7
:102190009F240E94082980E00E94121F80E00E9474
:1021A000121F0E94F718C82E81110E943E28E3EAF0
:1021B000F2E0ACEAB2E0E12CF12C8E2C11918D9181
:1021C000812709F448C1912C01E0982F902309F44C
:1021D0003DC10E94C1161023882399F099828A82FA
:1021E00081E0111101C080E08B830E944A28816048
:1021F000782F9D838C8349815A816B818D810E94C8
:102200001C07F701E455FD4F808108270083112347
:1022100069F086E08E9DF0018F9DF00D1124E95448
:10222000FE4FE90DF11D80818F3F11F4712C03C029
:10223000D82E77247394072D10E080916803F8015D
:10224000E80FF11D3997ACF188E090E05C01A01A2D
:10225000B10AB8016F5F7F4F68597C4FA50189E6CD
:1022600093E00E941F33B801675F7F4F68597C4F2E
:10227000A50181E793E00E941F33A501440F551F7C
:10228000B801660F771F675E7F4F68597C4F81E802
:1022900093E00E941F33B8016F5E7F4F68597C4FF7
:1022A000A50189E793E00E941F3388E08719809396
:1022B00068038091680390E0AD2DB0E09D01220F8E
:1022C000331F29513E4FAA0FBB1FBD0168517E4FDE
:1022D00041E0480F9715A8F490E0FC01E859FC4F45
:1022E000D9015C915183DB015C915187D18A880FC0
:1022F000991FFC01E859FC4F128E118E91E0842F3A
:10230000E7CF80936803809146058C7F843109F084
:10231000BAC0AFEFA80D61E0680D5FEF590D41E065
:10232000490D591580F486E08E9DF0018F9DF00DCA
:102330001124E85CFC4FE50FF11D208130E1230FF3
:1023400008F42FEF2083292D30E076E07E9DC00138
:102350007F9D900D1124885C9C4FFC01E20FF31FC0
:10236000708110E2710F08F47FEF7083463049F0FE
:10237000FC01E40FF11D708110E1710F08F47FEF93
:102380007083683079F170E0591580F486E0869F9B
:10239000F001879FF00D1124E85CFC4FE50FF11D63
:1023A00010810DE0100F08F41FEF1083E6E0E69FA8
:1023B000C001E79F900D1124885C9C4FFC01E20F47
:1023C000F31F608170E1670F08F46FEF60834630A0
:1023D00049F0FC01E40FF11D60817DE0670F08F416
:1023E0006FEF6083A81508F04EC0B0E0591580F477
:1023F00086E08A9FF0018B9FF00D1124E85CFC4F72
:10240000E50FF11D50816DE0560F08F45FEF50832A
:1024100086E08A9FF0018B9FF00D1124CF01885C2C
:102420009C4FFC01E20FF31F208130E1230F08F4E1
:102430002FEF2083463039F1FC01E40FF11D20819C
:102440003DE0230F08F42FEF20831DC09394000F6D
:1024500026E09212BACE3FEFE31AF30A88E0E816BC
:10246000F10409F0AACE8FEF8E838F8318860E9425
:102470004A288160782F9A8789874E815F81688595
:102480008A850E941C070E94C1160E942C1F809101
:102490000105882309F47AC18091D6029091D70270
:1024A0000E942F28C29708F46FC00E944A28909378
:1024B000D7028093D6028FE495E0909356078093DD
:1024C00055070E94C116882309F446C086EB91E0A7
:1024D0000E94942A80EB91E00E94942A0E94CF07E8
:1024E00084E00E942B22882319F086EF91E012C02D
:1024F00082E00E942B22882319F086EE91E00AC028
:1025000083E00E942B22882319F086ED91E002C01F
:1025100086EC91E00E94942A0E94CF0787E192E026
:102520000E94A22A80E00E942B22882319F081E1D8
:1025300092E00FC081E00E942B22882319F08BE0EB
:1025400092E007C086E00E942B228823E9F086E013
:1025500092E00E94A22A18C08DE192E00E94A22A75
:102560000E94CF0788E292E00E94942A0E94CF073F
:1025700085E00E942B22882319F08DE492E002C0AE
:102580008DE392E00E94942A80910105882309F44A
:10259000E2C020914D0530914E052115310509F419
:1025A000DAC08091D5028111D6C0482E512C71011C
:1025B000082E02C0EE0CFF1C0A94E2F7A9014E217E
:1025C0005F21452B11F48F5FF0CF9091D4029201DF
:1025D00075E0220F331F7A95E1F790FD12C08295C6
:1025E000880F807680931301220F232F221F330B35
:1025F000319520931601815E80931401109217018A
:1026000012C055E0369527955A95E1F7220F220F13
:10261000220F2093130110921601295F20931401B9
:1026200083E08093170124E630E047E050E061E169
:1026300071E088E70E94A22F892B09F08CC080915D
:10264000D40280FD23C0C20145E0880F991F4A953E
:10265000E1F7AC01415B5A4F04E610E020E230E0C4
:1026600060E488E70E94C92F892B09F074C00E949A
:10267000A829E094F09480914D0590914E05E822B0
:10268000F922F0924E05E0924D0565C080E2E4EB40
:10269000F2E0DF011D928A95E9F735E0440C551C04
:1026A0003A95E1F7E0E8F1E0FC87EB876CE771E051
:1026B000AB85BC858D91BC87AB87FB019191BF0138
:1026C000A201490F511D415B5A4F90E08C549D4F20
:1026D000FC0127E0A22E9F01281B390B822C01C090
:1026E000880C2A95EAF78A01912CD801BD908D01BA
:1026F000B8202A2D29192770722E022E000C330BB8
:10270000BB2D01C0BB0F7A94EAF77B2E3195219542
:1027100031092770332701C0B6942A95EAF77B2840
:10272000B0807B287082939428E09212DECFAA9426
:1027300031963FEFA312CFCF84E891E0AB85BC8503
:102740008A179B0709F0B4CF04E610E020E230E0DE
:1027500044EB52E085CF809100058823B9F00E94B8
:102760003E280091FC041091FD042091FE0430915C
:10277000FF04DC01CB01801B910BA20BB30B8F3F3D
:102780009F4FAF4FBF4710F40E948E29C1100E9487
:10279000A8290E9408299091D802891709F4A8CC89
:1027A0008093D802A5CC09BD19BD09B400FEFDCFA8
:1027B0008091D8008F7D8093D8008091E000826066
:1027C0008093E0008091E00081FDFCCF0E949F2477
:1027D00096CC80E008959091110592FF0DC0282FAE
:1027E0002871283019F4877F846006C0282F24714F
:1027F000243011F48B7F886093FF0DC0282F28713F
:10280000283119F4877E846106C0282F2471243171
:1028100011F48B7E88612091120520FF0DC0382FA6
:102820003871383019F4877F816006C0382F3171D4
:10283000313011F48E7F886021FF0DC0282F287160
:10284000283119F4877E816106C0282F217121313A
:1028500011F48E7E886194FD877E0895AF92BF92B9
:10286000CF92DF92EF92FF920F931F93CF93DF935C
:102870007C015B016A01809134038A3018F001E029
:1028800010E002C00AE010E0C1E0D0E0F894B50129
:10289000C701F60109957894811115C021960C178E
:1028A0001D0794F0CC9F9001CD9F300D300D112469
:1028B00080E090E045E34A95F1F700000196821729
:1028C0009307C1F7E3CF81E0DF91CF911F910F9183
:1028D000FF90EF90DF90CF90BF90AF900895DF9280
:1028E000EF92FF920F931F93CF93DF937901C82F3D
:1028F000880FDD0B41155105A9F0FE0193E0EE0FA5
:10290000FF1F9A95E1F7E85EFE4F818192818C511D
:102910009D4F208130E04217530708F49A01A90126
:102920000E941F33CE010E944331D82E8823D1F05C
:1029300001151105B9F083E0CC0FDD1F8A95E1F791
:10294000FE01E85EFE4F438150E00417150708F4CE
:10295000A801C85EDE4F6C817D816C517D4FC7013F
:102960000E941F338D2DDF91CF911F910F91FF900A
:10297000EF90DF9008950F931F93CF93DF9300D0D4
:102980001F92CDB7DEB76091280370912903809123
:102990002A0390912B030E94132841E064367105AD
:1029A0008105910508F440E03091250339836436B0
:1029B00071058105910520F42091FA02231341E06D
:1029C000909126039A83411106C041E02091FB02B9
:1029D000291301C040E0909127039B83411106C059
:1029E0008091FC02891302C011E019C000E010E0E0
:1029F00020E030E043E050E0BE016F5F7F4F87E0B2
:102A00000E946F14182F882351F00E943E28609373
:102A100028037093290380932A0390932B03812F1B
:102A20000F900F900F90DF91CF911F910F9108950C
:102A3000EF92FF920F931F93CF93DF9300D000D0BC
:102A40001F92CDB7DEB77B0101E010E09E012B5F46
:102A50003F4F40E050E060E070E080E00E946F1483
:102A6000182F8823C1F16091090370910A038091A6
:102A70000B0390910C030E941328643671058105A5
:102A8000910538F485EE92E00E94E92A9D8189172C
:102A900011F104E010E09E012F5F3F4F40E050E055
:102AA00060E070E081E00E946F14182F85EE92E0E4
:102AB0000E94E92A91E02D81281390E0192329F141
:102AC0000E943E286093090370930A0380930B03CE
:102AD00090930C030CC08091E5029091E602A091C6
:102AE000E702B091E80289839A83AB83BC83112308
:102AF00061F089819A81AB81BC81809305039093B9
:102B00000603A0930703B0930803809105039091F7
:102B10000603A0910703B0910803F7018083918316
:102B2000A283B383812F0F900F900F900F900F907F
:102B3000DF91CF911F910F91FF90EF900895AF9289
:102B4000BF92CF92DF92EF92FF920F931F93CF939A
:102B5000DF93C82F7B01D42F69015801FB016081ED
:102B60007181828193810E941328643671058105E9
:102B7000910510F4DD23A1F000E010E020E030E04A
:102B8000A501B6018C2F0E946F14C82F882349F02D
:102B90000E943E28F701608371838283938301C082
:102BA000C1E08C2FDF91CF911F910F91FF90EF909B
:102BB000DF90CF90BF90AF9008950F931F93CF9366
:102BC000DF931F92CDB7DEB78091000589832091F6
:102BD000040330E090E041E02817390709F440E0B1
:102BE00001E010E09E012F5F3F4F60E373E089E05A
:102BF0000E949F150F90DF91CF911F910F91089523
:102C00000F931F9341E00091F1021091F202209185
:102C1000F3023091F40280919F029091A002A09162
:102C2000A102B091A202081719072A073B0709F46D
:102C300040E004E010E02FE932E06DE173E084E071
:102C40000E949F15882301F141E00091F502109147
:102C5000F6022091F7023091F802809119039091C9
:102C60001A03A0911B03B0911C03081719072A0728
:102C70003B0709F440E004E010E029E133E065E1BE
:102C800073E085E00E949F151F910F910895CF92E8
:102C9000DF92FF920F931F93CF93DF93F82E6B0178
:102CA000EA01A801B901CE010E94123341E0892B4B
:102CB00009F440E09E01B6018F2D0E949F15DF911F
:102CC000CF911F910F91FF90DF90CF9008950F93B8
:102CD0001F93CF93DF93CDB7DEB727970FB6F89446
:102CE000DEBF0FBECDBF86E0E6E4F5E0DE01119663
:102CF00001900D928A95E1F78091C2038F8307E0DE
:102D000010E02DEF32E0AE014F5F5F4F6CE273E0F9
:102D100088E00E94471627960FB6F894DEBF0FBED4
:102D2000CDBFDF91CF911F910F9108950F931F9306
:102D3000CF93DF931F92CDB7DEB70E940829898316
:102D400001E010E029EF32E0AE014F5F5F4F61E23A
:102D500073E086E00E9447160F90DF91CF911F919C
:102D60000F9108950F931F9304E010E029EE32E0D5
:102D7000AC016DE073E082E00E9447161F910F9155
:102D800008958091E302811118C08091D80080617C
:102D90008093D8008AE18A95F1F700C08091D9002C
:102DA00080FD02C082E001C081E08093E3028230B6
:102DB00021F40E94A02510923B0581E09091E3024E
:102DC000913009F080E00895F894E82FE295EF70D3
:102DD000F0E031A1282F2F7081E090E001C0880F32
:102DE0002A95EAF7982F9095932391A392A1892B86
:102DF00082A3789408950F931F930E94C11688238D
:102E000021F01F910F910C943E280E943E280091C2
:102E10009102109192022091930230919402600FDE
:102E2000711F821F931F1F910F9108950F931F937E
:102E3000CF93DF9300D000D0CDB7DEB76091110300
:102E40007091120380911303909114030E94132830
:102E5000643671058105910528F10E94FB16DC019D
:102E6000CB010296A11DB11D89839A83AB83BC83DC
:102E700000E010E020E030E044E050E0BE016F5F91
:102E80007F4F83E00E946F14182F882361F00E9407
:102E90003E28609311037093120380931303909361
:102EA000140301C011E0812F0F900F900F900F902D
:102EB000DF91CF911F910F910895CF93DF938238C7
:102EC000910569F1B0F48133910509F46FC048F4BC
:102ED0008932910509F465C08A32910509F46BC005
:102EE0008AC08533910509F457C089339105B9F03B
:102EF00082C0833E910571F138F4803E9105B1F0B6
:102F0000823E910511F177C0863E9105B9F1873E69
:102F10009105C9F1843E910509F06DC024C020914E
:102F2000110520FD53C021FD51C065C080911105E0
:102F300080FD46C08091120580FF48C08091110538
:102F400084FD3FC183EE90E03EC18091110582FF78
:102F50003AC0F4CF8091110582FD35C080911205F1
:102F600080FD34C0EBCF8091120581FF35C0809188
:102F7000110584FD26C187EE90E025C180911105E1
:102F800083FF27C0F4CF8091110583FD22C080917B
:102F9000120581FD21C0EBCF8091110585FD1FC079
:102FA00021C08091110585FD1DC019C080911105BA
:102FB00086FD1BC01DC08091110586FD19C015C07E
:102FC00089E390E000C182EE90E0FDC080EE90E0E9
:102FD000FAC086EE90E0F7C084EE90E0F4C089E29B
:102FE00090E0F1C085E390E0EEC08AE290E0EBC0B3
:102FF00081E390E0E8C0811532E5930708F069C0ED
:10300000811541E5940728F0982F8827816F906AF1
:10301000DAC0883E910568F5803E910508F0D3C07E
:10302000883A9105B8F4853A910548F0855AE82F19
:10303000F0E0EC57FE4F808190E09064C4C0813096
:10304000910509F4BBC008F4BCC08430910508F4B4
:10305000B8C0B9C08F3B910508F0B3C0885AE82FBB
:10306000F0E0EE0FFF1FE957FE4F808191819464DD
:10307000AAC0811520E59207F0F09C0174E0369516
:1030800027957A95E1F7922F9370482F437021E0AE
:1030900030E002C0220F331F4A95E2F73C68392B1B
:1030A0008F70982F9695969540E2949FC0011124B9
:1030B000822B932B88C0811530E4930718F09F7002
:1030C000906A81C09C013A9521153F4108F47BC06C
:1030D00078C0EC01C11586E5D807E8F5C11525E5EE
:1030E000D20748F08C2F0E94EB138F7190E0982F3D
:1030F0008827906268C0C11534E5D30728F09C2F5B
:103100008827846F906A5FC0AE01437055272C2FCB
:1031100026952695C115D34578F481E090E002C04C
:10312000880F991F4A95E2F740E2249F90011124ED
:10313000822B932B9C6847C081E090E002C0880FEF
:10314000991F4A95E2F740E2249F90011124822BB7
:10315000932B9A6838C0C1152AE5D207F8F4C11537
:1031600039E5D30790F08C2F8F700E94EB1394E019
:10317000D695C7959A95E1F7CF70D0E0DC2FCC2794
:10318000D0699E01282BC9011EC0C11548E5D4078E
:10319000C0F09C2F8827806F906A15C0CE01905692
:1031A0008115904270F48D2F8F710E94EB13282FA0
:1031B0002F71CE0199279062922B05C081E090E09B
:1031C00002C080E090E0DF91CF910895CF9384E03A
:1031D00090E00E944732C82F82E290E00E9447327E
:1031E0002C2F30E0A901582BCA01CF9108955F928E
:1031F0006F927F928F929F92AF92BF92CF92DF9207
:10320000EF92FF920F931F93CF93DF93CDB7DEB76B
:103210002C970FB6F894DEBF0FBECDBF9E012F5F77
:103220003F4F790188E0D9011D928A95E9F702E7BD
:1032300011E0690186E7682E81E0782EAA24A39424
:10324000B12C2CE7822E21E0922EF80180818F3F55
:1032500009F440C0F894E82FE295EF70F0E021A166
:103260008F70A50102C0440F551F8A95E2F7CA016D
:10327000922F982B91A392A18095892382A3789471
:1032800000C0E6E7F1E0512C31E021912F3F89F0B9
:10329000A22FA295AF70B0E090968C9190E02F7025
:1032A00002C0959587952A95E2F780FD02C0832F8D
:1032B00001C080E0582A330F8E169F0631F7D801DF
:1032C0008C918F3F11F00E94E416B0EABA95F1F7A5
:1032D000F60150820F5F1F4FFFEFCF1ADF0A601613
:1032E000710609F0B2CF48E050E0B70185E992E0FD
:1032F0000E9412338C01892B41F088E0F701A5E987
:10330000B2E001900D928A95E1F7F0909E020115CE
:10331000110549F081E08093DB020E944A289093D6
:10332000DA028093D9028091DB028823B9F0809180
:10333000D9029091DA020E942F28059778F0A5E92A
:10334000B2E0EF2DF0E0ED55FD4F89E992E02D91CF
:1033500021938A179B07D9F71092DB0201151105FB
:1033600009F059C10E94C116E0919E02882309F418
:10337000ACC019861A861B861C860E2F10E00D55D0
:103380001D4F809134038A3060F448E155E1BE015D
:10339000675F7F4FC8010E942E14882309F468C01C
:1033A0000AC08091DC029091DD020E942F28843FA8
:1033B000914058F76EC042EB56E1BE01675F7F4F08
:1033C000C8010E942E14882309F452C046E157E137
:1033D000BE01675F7F4FC8010E942E14882309F445
:1033E00047C040E056E1BE01675F7F4FC8010E94C1
:1033F0002E148823E9F146E956E1BE01675F7F4F4D
:10340000C8010E942E14882399F14BEB54E1BE01B0
:10341000675F7F4FC8010E942E14882349F147E659
:1034200056E1BE01675F7F4FC8010E942E148823BA
:10343000F9F04DED55E1BE01675F7F4FC8010E9475
:103440002E148823A9F01092340380919D0290E0FD
:1034500044E050E0BE01675F7F4F8D559D4F0E9455
:10346000123321E02093E202892B01F500E0D5C060
:10347000809134038F3F19F08F5F809334038091E4
:1034800034038A3010F30E944A289093DD0280931F
:10349000DC028091E202882349F3FE01399684E040
:1034A000DF011D928A95E9F71092E202E0919D02F8
:1034B000F0E0ED55FD4F89859A85AB85BC8580830D
:1034C0009183A283B38301E0A8C0F0E0ED55FD4FE6
:1034D000E0909D028E2D90E09C012D553D4F79018D
:1034E000F89484E0A5EEB2E001900D928A95E1F7A0
:1034F00085EE92E00E94E92A8093E4027894F894A1
:1035000084E0E9EEF2E0D70101900D928A95E1F7AF
:103510007894F894C090ED02D090EE02E090EF0223
:10352000F090F0028091DE029091DF02A091E00223
:10353000B091E102C816D906EA06FB06D1F0C092A6
:10354000DE02D092DF02E092E002F092E1020E94FD
:10355000C11681110EC00E943E28C61AD70AE80A79
:10356000F90AC0929102D0929202E0929302F092F4
:1035700094027894F8948091F1029091F202A091D3
:10358000F302B091F40280939F029093A002A09363
:10359000A102B093A2028091F5029091F602A0914F
:1035A000F702B091F8028093190390931A03A09345
:1035B0001B03B0931C037894F8948091F9028093D4
:1035C00005057894F8948091FA0280932503809100
:1035D000FB02809326038091FC020E947520789460
:1035E000F89486E0EDEFF2E0A6E4B5E001900D92EC
:1035F0008A95E1F7809103030E94121F7894F89452
:1036000080910403882319F00E94A82902C00E9417
:103610008E29789402C001E010E0802F2C960FB61E
:10362000F894DEBF0FBECDBFDF91CF911F910F91F8
:10363000FF90EF90DF90CF90BF90AF909F908F90D2
:103640007F906F905F900895E6E4F5E024813AE082
:10365000231B08F420E0248380914505816080933A
:1036600045050895E6E4F5E024813AE0230F08F4E7
:103670002FEF24838091450581608093450508954F
:10368000FF920F931F93CF93DF93EC01F62E042F3D
:10369000122F0E94C116811105C0CB31D1057CF0DB
:1036A0006B9703C0CB31D10554F4CE01880F991F1D
:1036B000C80FD91FCD53DC4FF98208831A83DF91DD
:1036C000CF911F910F91FF900895539A8BB1877FEF
:1036D0009BB198602FB7F894E3ECF3E034E0E53663
:1036E000F30789F0319148E09BB9000000C037FF33
:1036F0008BB9330F000000C000C000C08BB900C000
:103700004A9591F7EBCF2FBF8FE594E00197F1F742
:1037100000C000000895FF920F931F93CF93DF9393
:10372000182F062FF42EC0E0D0E02F2D402F612F50
:10373000CE010E940C2E2196C633D105B1F7DF9140
:10374000CF911F910F91FF9008951F93CF93DF9317
:10375000FC01ED5AFD4F20816223D1F0EC010E9463
:103760001E32182F0E941E328F77782F20E8720F9A
:1037700008F47FEF612F809149050E945B2E462F50
:10378000282F672FCE01DF91CF911F910C940C2E23
:10379000DF91CF911F910895E6E4F5E0438128E0A1
:1037A000421B08F440E08181628190E00C94002B80
:1037B000E6E4F5E0438128E0420F08F44FEF818111
:1037C000628190E00C94002BE6E4F5E0628128E051
:1037D000621B08F460E08181438190E00C94002B2F
:1037E000E6E4F5E0628128E0620F08F46FEF818182
:1037F000438190E00C94002BE6E4F5E0818190E0B9
:103800004381628108970C94002BE6E4F5E0818106
:1038100090E04381628108960C94002B80914605CC
:1038200086958695815009F486E00C94A72A8091AC
:103830004605869586958F5F873008F081E00C9469
:10384000A72A5F926F927F928F929F92AF92BF92C0
:10385000CF92DF92EF92FF920F931F93CF93DF935C
:10386000C82F80916C018C130DC0209146052370E8
:1038700030E040916B0150E081E02417350719F4E6
:1038800080E001C081E0817080936A0180914B05E6
:1038900090916901981739F08093690140E060E0E8
:1038A00080E00E948B1BC33009F04FC0D0916801AB
:1038B0008BE0D89FD02D11241BE01D0F173308F08B
:1038C00016E30E94C116882319F01C3108F01BE191
:1038D0000E94C116811103C0DB3108F4DBE1309195
:1038E0004A053695369521E0320F08F43FEF4091B6
:1038F000BE035091BF0380E090E0439F812D539F12
:10390000800D911D1124082FD11708F045C0ED2E10
:10391000F12CF701ED5AFD4F9081809169018923C7
:1039200091F0609147057091480580914905202FDD
:103930004D2F0E94302E0E945B2E462F282F672F7E
:10394000C7010E940C2EDF5FDFCFC43048F5C130C5
:1039500009F088C080916801DBE08D9FD02D112493
:103960001BE01D0F173308F016E30E94C1168111EA
:103970005DC00E94C116882309F45DC060914705AF
:1039800070914805809149050E945B2E062FF72E05
:10399000E82ED11708F454C0812F0E944B2E32C05C
:1039A000C53009F0B6C0809168010BE0809F002D02
:1039B0001124DBE0D00FD13308F0D0E380916A010D
:1039C000882361F040E060E080E00E948B1B80E390
:1039D000E8E3F3E0DF011D928A95E9F78091680141
:1039E000882309F4C1C010E0AD2EB12C66E0662E2C
:1039F0007AEA572E0A151B050CF4CDC081E0D033AE
:103A000008F0B0C0909168019F5F909368018111A8
:103A1000F9C182E080936E0180916A018111F2C147
:103A2000C111F0C183E080936E01ECC11C3108F438
:103A3000A0CF1BE19ECFDB3108F0A0CFDBE19ECF12
:103A4000ED2FF0E0DF01AD5ABD4F8C9190916901EF
:103A5000982331F02E2D402F6F2DCF010E940C2E78
:103A6000DF5F97CFC23058F480916A01882309F450
:103A700079C040E060E080E00E948B1B73C0D09171
:103A800068018BE0D89FD02D11241BE01D0F173348
:103A900008F016E30E94C116882319F01C3108F0C3
:103AA0001BE10E94C116811103C0DB3108F4DBE188
:103AB000F090480500914905E0904705B701802F37
:103AC0000E945B2ED62EC72EB82E60914A056E0D31
:103AD0007F2D802F0E945B2E062FF72EE82ED11708
:103AE00008F05ACF8D2F90E0FC01ED5AFD4F308148
:103AF00020916901232359F030FF04C02E2D402F5F
:103B00006F2D03C02B2D4D2D6C2D0E940C2EDF5FD1
:103B1000E6CFC53008F0C7C080916A0181119AC014
:103B200020914A0530E1230F08F42FEF4091BE03A6
:103B30005091BF0380E090E0429F812D529F800D05
:103B4000911D112465E070E00E94BE31892B51F473
:103B50000E941E3266E370E00E94F83260916901B3
:103B60000E94A51B80E04ECF8091360390913703D1
:103B70000E942F2821E08931910508F420E020934C
:103B80003503499708F42FCF0E944A2890933703B2
:103B90008093360328CF4801B7E08B22992478011F
:103BA00053E0F594E7945A95E1F7689CC001699C4D
:103BB000900D1124FC01E85CFC4FEE0DFF1D7080A0
:103BC00089549E4FFC01EE0DFF1D80818F3F59F1FE
:103BD000C82ED12CF601ED5AFD4F908180916901DC
:103BE000892309F1372D25E5321B08F430E0709167
:103BF0004805252D472D240F08F42FEF4091490546
:103C000082E0289F200D11242E5F249F212D112456
:103C1000652D631B822F0E945B2E462F282F672F56
:103C2000C6010E940C2E80913503882381F0272D38
:103C300031E0231B08F420E0689CC001699C900DD2
:103C40001124885C9C4FFC01EE0DFF1D20830F5F4B
:103C50001F4FD0CE809168010BE0809F002D112472
:103C6000DBE0D00FD73308F0D6E30E94C1168823DB
:103C700019F0DC3108F0DBE10E94C116811103C0AC
:103C80000B3108F40BE110E0ED2EF12C0E151F05A1
:103C900044F460916901C8010E94A51B0F5F1F4F8A
:103CA000F5CF8D2F7ACEC63009F073C0D091680160
:103CB0008BE0D89FD02D11241BE01D0F173308F087
:103CC00016E30E94C116882319F01C3108F01BE18D
:103CD0000E94C116811103C0DB3108F4DBE12091A1
:103CE0004A0531E0230F08F42FEF30E040E050E0C8
:103CF0006FEF7FEF80E090E00E948932790101E070
:103D0000C12CD12CD11708F047CEAD2EB12CF50126
:103D1000ED5AFD4F908180916901892309F437C0E4
:103D200080919103815087FD15C0282F082E000C2B
:103D3000330BF901EF56FC4F9189D913F3CF220FC2
:103D4000331FF901EF56FC4F618D728D6E157F05A3
:103D500048F701C0B70120914A05200F08F42FEF62
:103D6000A601629F412D729F400D511D112460914B
:103D7000470570914805809149050E94292E0E94AF
:103D80005B2E462F282F672FC5010E940C2EDF5F68
:103D9000B9CFCF3F89F58091BE039091BF03A09129
:103DA000C003B091C10388279C70AA27BB272AE0D3
:103DB000B695A795979587952A95D1F78230910565
:103DC000A105B10571F083309105A105B10569F038
:103DD00040E00197A105B10511F060E008C064E181
:103DE00002C044E160E080E003C044E164E184E1BA
:103DF0000E948B1B82E017CE809168018F5F8093B9
:103E0000680107CEDF91CF911F910F91FF90EF9046
:103E1000DF90CF90BF90AF909F908F907F906F90EA
:103E20005F900895CF93C82F882391F08091C203AB
:103E300081110EC00E94211C10926C0180914605D8
:103E4000837080936B010E94651B83E080936E01F9
:103E5000C093C203CF9108954F925F926F927F9269
:103E60008F929F92AF92BF92CF92DF92EF92FF928A
:103E70008090BA039090BB03A090BC03B090BD03A8
:103E80000E94C116882339F0C501B4010E9413288D
:103E90006B017C0108C00E94FB166B017C01C818F5
:103EA000D908EA08FB080E94FB164B015C016093ED
:103EB000BA037093BB038093BC039093BD03A0919E
:103EC0006803E8E6F3E08A2F90E04FEF5FEF60E0F1
:103ED00070E04C195D096E097F09A91799F0218DD1
:103EE000328D2901612C712C441555056605770525
:103EF00010F4815004C02C0D3D1D328F218F9F5F27
:103F00003296EBCF809368038091C203811108C081
:103F100080914605982F937019F08695869501C07B
:103F200080E090916E019130D9F028F0923031F11B
:103F3000933089F15CC0109268018092BE03909228
:103F4000BF03A092C003B092C10389E2E8E6F3E0A8
:103F5000A1E9B3E001900D928A95E1F781E018C0E4
:103F6000FF90EF90DF90CF90BF90AF909F908F9099
:103F70007F906F905F904F900C94211C80936C0108
:103F800080914605837080936B010E94651B83E0DE
:103F900080936E012CC080914505882351F046E046
:103FA00050E06CE170E086E495E00E94553210929A
:103FB0004505C090BE03D090BF03E090C003F090D1
:103FC000C1030E94C116882329F0C701B6010E94CF
:103FD000132806C00E94FB166C197D098E099F09E3
:103FE000603171058105910510F010926E01FF900E
:103FF000EF90DF90CF90BF90AF909F908F907F9089
:104000006F905F904F90089569EE7EEF80E090E0B2
:104010000E94833260E082E090E00E94653260E0BE
:1040200083E090E00E9465321092190310921A0307
:1040300010921B0310921C0360E084E090E00E9449
:10404000653260E082E290E00E94653260E085E0E7
:1040500090E00E94653260E086E090E00E94653268
:104060006FEF87E090E00E94653240E050E0BA01D7
:1040700088E090E00E94773260E08DE090E00E945E
:10408000653240E050E0BA0188E190E00E9477326A
:1040900060E087E190E00E94653240E050E0BA01C4
:1040A0008CE190E00E94773260E070E080E290E086
:1040B0000E94833240E050E0BA0188E190E00E9423
:1040C000773240E050E0BA018FE090E00E94773212
:1040D00040E050E0BA0183E190E00C9477328091A7
:1040E000270381111092270308959091120592FDE4
:1040F00005C0909127039813809327030895809516
:104100009091250389238093250308959091250399
:1041100080912603982B9093650480912703882330
:10412000D9F0892B8093650480916D01882331F04B
:104130008091110587FF02C08EE101C086E0E7E6AD
:10414000F4E090E0815028F021912223D9F39F5F81
:10415000F9CF91110E946F2040E250E06CED74E0C5
:1041600085E694E00E941233892B21F180E2E5E696
:10417000F4E0ACEDB4E001900D928A95E1F7E091A6
:104180000805F09109053097A9F080916D01882309
:1041900059F08091110587FF07C0809165048093D5
:1041A000660486E0809365040280F381E02D85E655
:1041B00094E00994089580E090E00E94F22880E065
:1041C00090E00E94DC28109226030C9486208091B7
:1041D000DA049091A904891719F08F5F8770FBCFDB
:1041E00008950F931F93CF93DF938091A804829536
:1041F0008F7009F05DC08091A504882309F458C030
:104200008091DA041091A9046091A3047091A40430
:10421000C091A604D091A70491E06F3F09F090E00F
:10422000292F06E0811709F443C0209721F07F3F32
:1042300021F030E003C031E001C0322F90E030FDCA
:1042400034C0089FF001099FF00D1124DF01A6552D
:10425000BB4F11963C911197371327C03C913613F1
:1042600024C012963C91129731111FC013964D91A4
:104270005C9114974C1B5D0B46395105B0F480914D
:10428000A8048F7080618093A804E155FB4F808162
:104290008F708061808383EA94E00E94D307DF916E
:1042A000CF911F910F910C94E72001968770BACFA0
:1042B000DF91CF911F910F9108958F929F92AF92AE
:1042C000BF92DF92EF92FF920F931F93CF93DF93F2
:1042D00080909F029090A002A090A102B090A202B4
:1042E0004091190350911A0360911B0370911C03B4
:1042F000842A952AA62AB72ACFE1D0E026E0929F09
:104300007001112490E3D92E082F10E0D501C401CB
:104310000C2E04C0B695A795979587950A94D2F769
:1043200080FD04C0219790F780E014C0DC9EF0016E
:10433000DD9EF00D1124EE0DFF1DE00FF11FEE0FBD
:10434000FF1FE35AFD4F859194910E945D170197DD
:1043500049F38C2FDF91CF911F910F91FF90EF9038
:10436000DF90BF90AF909F908F900895CF93DF9391
:10437000EC010E945D2120E3829FC0011124FC0119
:1043800026E0D29FE00DF11D1124EC0FF11DEE0F80
:10439000FF1FE35AFD4F859194910E945D17DF91B5
:1043A000CF910895292F220F920F990F890F682F0F
:1043B000669566956695982F977085E0689FB00121
:1043C000112440E050E080E0FB01E40FF51FEB57C3
:1043D000FB4F208130E0092E02C0369527950A94C4
:1043E000E2F721703327042E01C0220F0A94EAF766
:1043F000822B4F5F5F4F4530510531F70895292FCC
:10440000220F920F990F890FE82FE695E695E69512
:10441000877051E001C0550F8A95EAF785E0E89F63
:10442000F0011124EB57FB4F20E030E070E04081B9
:10443000CB01022E02C0969587950A94E2F781700F
:10444000819584278523842781932F5F3F4F2530D3
:10445000310569F7089540919F025091A002609143
:10446000A1027091A202411551056105710529F45F
:1044700041E0882351F040E008C004C0769567957C
:10448000579547958A95D2F74170842F0895609388
:104490009F027093A0028093A1029093A2020C94B9
:1044A000DB200F931F9341E050E060E070E004C018
:1044B000440F551F661F771F8A95D2F74095509578
:1044C0006095709580919F029091A002A091A102A9
:1044D000B091A2028A019B01082319232A233B23BE
:1044E000C901B8011F910F910C9447222091DB0460
:1044F000809582238093DB04982F977099F430E0A5
:10450000482F082E000C550B2417350759F09091B1
:10451000120592FD07C08595859585950E945122CB
:104520001092DB040895CF93C0911205C2FB992726
:1045300090F9981799F080FBC2F9C0931205609129
:10454000110584E090E00E9465326C2F82E290E0D9
:104550000E94653282E0CF910C947622CF9108952B
:104560000F931F9341E050E060E070E004C0440FFF
:10457000551F661F771F8A95D2F780919F029091F1
:10458000A002A091A102B091A2028A019B01082B76
:10459000192B2A2B3B2BC901B8011F910F910C94A9
:1045A00047226093190370931A0380931B0390931F
:1045B0001C030C94DB2092959F70963079F010F4D8
:1045C000925001C09A50923068F4803F69F018F41C
:1045D000883E40F409C0843F29F406C0883E20F09C
:1045E000813F11F080E0089581E00895FC01808111
:1045F00091810E94B6210E94DB2208959F92AF9282
:10460000BF92CF92DF92EF92FF920F931F93CF93BF
:10461000DF93CDB7DEB761970FB6F894DEBF0FBE5C
:10462000CDBF8C0185E0F801DE011D9601900D9251
:104630008A95E1F7F801E2809091A3046091A404C7
:104640004091A6045091A7044115510531F06F3FE8
:1046500031F481E09F3F19F403C081E001C080E0A4
:10466000F82FF1709F2E80FD1AC1F8013081218151
:10467000C380D48083EAA82E84E0B82EF090A504ED
:10468000F601E41BF50BFF2009F4C6C08091A804D5
:10469000E639F10508F091C0482F407F09F050C07D
:1046A000621311C093130FC0FE2CE1100CC08F7069
:1046B00080618093A804C5010E94D3078091A8045B
:1046C000F801858329C1CD2831F02F3F31F481E0F5
:1046D0003F3F19F403C081E001C080E080FD03C0CA
:1046E00081E08E2502C080E090E0F82FF170FF2E6F
:1046F00080FF1CC08091DA044091A90456E0841721
:1047000009F4E8C090E0589FF001599FF00D112482
:10471000E655FB4F6181261306C06081631303C019
:104720006281E61203C001968770E9CFFE2CEE206D
:1047300009F4F2C08091A80481608093A80449C064
:10474000621306C0931304C0E11002C0F80186C0D2
:10475000C8010E94F622882351F1EE2041F12091F8
:10476000A804822F82958F7090E0029774F0809158
:10477000A3049091A40498878F831986DB86CA8648
:104780002C87CE0107960E94D30786E0F801A3EAA2
:10479000B4E001900D928A95E1F70E94F1200AC0E1
:1047A0006217C9F0C8010E94F62281111EC0C8011B
:1047B0000E94D307FF24F394AFC0482F407F81F7B6
:1047C00083EA94E00E94D30786E0F50111928A956E
:1047D000E9F7F12CA1C09313E5CFE110E3CFF80185
:1047E0008583C8010E94D30754C0EE2001F32091B5
:1047F000A804822F82958F7090E0029734F2809106
:10480000A3049091A4049A8389831B82DD82CC82C5
:104810002E83CE010196B7CFE639F105D0F5FE2CF7
:10482000EE2029F2621327C0931325C02091A8041B
:1048300020FD18C0822F82958F70482F50E04115BF
:10484000510581F0F80125834F30510541F08F5F0C
:10485000982F9295907F822F8F70892B8583C80126
:104860000E94D30786E0F801A3EAB4E001900D921C
:104870008A95E1F751C0C8010E94F622811185CFC7
:104880008091A80481608093A804C8010E94D30786
:1048900043C086E0F50111928A95E9F73DC0EE200C
:1048A00009F485CFC8010E94F622F82E882309F466
:1048B0007ECF86E0F801A3EAB4E001900D928A95DC
:1048C000E1F78091A3049091A4040E94B6210E9474
:1048D000F12022C03D872E878D859E850E94B621BE
:1048E000292F22952F70223028F49F7039F08111E2
:1048F00005C00BC0243028F49F7049F4805E8830D6
:1049000020F0C8010E94D3079F2CF92C05C0F801A4
:104910009581907F99F7F9CF8F2D61960FB6F89416
:10492000DEBF0FBECDBFDF91CF911F910F91FF90E2
:10493000EF90DF90CF90BF90AF909F90089510922E
:10494000250380916D01882331F08091110587FF47
:1049500002C08EE101C086E0E7E6F4E0DF011D92CF
:104960008A95E9F70C94DB20882321F00E947F20B0
:104970000C9486200895882339F090912503892B83
:10498000809325030C94862008951F93CF93DF9383
:10499000182F893319F0C0E0D0E002C0C0E5D0E0A4
:1049A000812F0E94A906209741F08FE99FE001978F
:1049B000F1F700C000002197F6CF812FDF91CF9152
:1049C0001F910C947F06089508958091180508950D
:1049D00080931305709315056093140580913B0532
:1049E000843001F582E08093E9008FEF9091E80038
:1049F000815095FD06C095ED9A95F1F70000811163
:104A0000F5CF8091E80085FF0DC040E050E063E005
:104A100070E083E195E00E94132B8091E8008E778F
:104A20008093E8000895BC0184E00C94E824BC0164
:104A300083E00C94E824CF93DF9320916D0122232F
:104A400039F02091110527FF03C060E222E002C087
:104A500068E021E02093E9002FEF3091E800215039
:104A600035FD06C035ED3A95F1F700002111F5CF7F
:104A70002091E80025FF1DC0EC0180916D0181119E
:104A800005C040E050E068E070E003C070E040E046
:104A900050E0CE010E94132B8091E8008E77809326
:104AA000E80080E2FE01A9E1B5E001900D928A954F
:104AB000E1F7DF91CF9108951F920F920FB60F92F9
:104AC00011242F933F934F935F936F937F938F9313
:104AD0009F93AF93BF93CF93DF93EF93FF93C091D7
:104AE000E900CF708091EC00D82FD17080FDD0E824
:104AF0001092E9008091F000877F8093F000789415
:104B00000E943F2B1092E9008091F0008860809312
:104B1000F000CD2BCF70C093E900FF91EF91DF91B2
:104B2000CF91BF91AF919F918F917F916F915F9145
:104B30004F913F912F910F900FBE0F901F9018959E
:104B4000E8EDF0E080818E7F80831092E200109289
:104B5000DA001092E100A0EEB0E08C9181608C93BD
:104B600080818F77808319BCA7EDB0E08C918E7F18
:104B70008C9380818F7E80831092160508952091FA
:104B8000E4003091E50095E64091EC00842F8170BF
:104B900040FF23C08091E80080FD1DC080913B054F
:104BA000882399F0853099F08091EB0085FD11C044
:104BB0004091E4005091E5002417350729F3915006
:104BC00011F09A01E1CF84E0089582E0089583E036
:104BD000089581E0089580E008954091E80042FF43
:104BE000DDCF089580913D0587FF11C08091E800D9
:104BF00082FD05C080913B058111F8CF11C08091E5
:104C0000E8008B770BC080913B05882349F08091A9
:104C1000E80080FFF8CF8091E8008E778093E8006D
:104C20000895982F973068F59093E900981739F018
:104C30007091EC002091ED005091F00003C0242F02
:104C4000762F50E021FD02C09F5FECCF3091EB004A
:104C50003E7F3093EB003091ED003D7F3093ED00CF
:104C60003091EB0031603093EB007093EC002093B7
:104C7000ED005093F0002091EE0027FDE5CF80E09D
:104C800008958F708093E90081E00895CF92DF92BC
:104C9000EF92FF920F931F93CF93DF93C8EDD0E075
:104CA00088818F7E8883E7EDF0E08081816080835A
:104CB00084E082BF81E08093160588818E7F88839F
:104CC00002EE10E0F80110821092DA0081EEC82E98
:104CD000D12CF601108288818F7788838881806843
:104CE000888388818F7D888319BC10923B05109240
:104CF0003C0510923A051092390590EEE92EF12C00
:104D0000F70180818B7F808388818160888342E086
:104D100060E080E00E941126F60180818E7F808312
:104D2000F801808181608083808188608083F701C1
:104D300080818E7F8083888180618883DF91CF919D
:104D40001F910F91FF90EF90DF90CF9008951F92E9
:104D50000F920FB60F9211242F933F934F935F93AF
:104D60006F937F938F939F93AF93BF93EF93FF9333
:104D70008091E10082FF09C08091E20082FF05C0BE
:104D80008091E1008B7F8093E1008091DA0080FFC9
:104D90002AC08091D80080FF26C08091DA008E7FE3
:104DA0008093DA008091D90080FF18C080E189BD2E
:104DB00082E189BD09B400FEFDCF81E080933B050F
:104DC0008091160581110FC00E94A0250E944626E1
:104DD0008091E20084608093E20005C019BC1092CB
:104DE0003B05109216058091E10080FF17C080916D
:104DF000E20080FF13C08091E2008E7F8093E2008A
:104E00008091E20080618093E2008091D80080620E
:104E10008093D80019BC85E080933B058091E10028
:104E200084FF30C08091E20084FF2CC080E189BD06
:104E300082E189BD09B400FEFDCF8091D8008F7D4D
:104E40008093D8008091E1008F7E8093E100809173
:104E5000E2008F7E8093E2008091E2008160809387
:104E6000E20080913C05882311F084E007C0809126
:104E7000E30087FD02C081E001C083E080933B0531
:104E800080913B058091E10083FF27C08091E20083
:104E900083FF23C08091E100877F8093E10082E05F
:104EA00080933B0510923C058091E1008E7F8093BA
:104EB000E1008091E2008E7F8093E2008091E20029
:104EC00080618093E20042E060E080E00E94112671
:104ED0008091F00088608093F000FF91EF91BF9186
:104EE000AF919F918F917F916F915F914F913F9182
:104EF0002F910F900FBE0F901F9018952091430592
:104F0000309144052617370748F06115710539F4CB
:104F10002091E8002E772093E80001C0B901FC0140
:104F200020E06115710579F180913B058823F1F14D
:104F30008530F1F18091E80083FD3CC08091E8006C
:104F400082FD2EC08091E80080FFEBCF2091F3001E
:104F50008091F20090E0922B6115710551F088303C
:104F6000910538F421912093F10061507109019667
:104F7000F3CF21E0089709F020E08091E8008E77D8
:104F80008093E800CECF2111CFCF0AC080913B059E
:104F9000882361F0853061F08091E80083FD0AC0CC
:104FA0008091E80082FFF2CF80E0089582E00895CA
:104FB00083E0089581E0089587E797E790930108DB
:104FC000809300089AE088E10FB6F894A895809342
:104FD00060000FBE90936000FFCF78941F920F92F5
:104FE0000FB60F9211248F939F93AF93BF9380912D
:104FF0000D0590910E05A0910F05B0911005019639
:10500000A11DB11D80930D0590930E05A0930F0572
:10501000B0931005BF91AF919F918F910F900FBEEC
:105020000F901F901895CF92DF92EF92FF922FB7BB
:10503000F894C0900D05D0900E05E0900F05F0900B
:1050400010052FBFA7019601261B370B480B590BE4
:10505000CA01B901FF90EF90DF90CF9008959C01B5
:105060004FB7F89480910D0590910E05A0910F0512
:10507000B09110054FBF821B930B08952FB7F89482
:1050800060910D0570910E0580910F0590911005AE
:105090002FBF08952FB7F89480910D0590910E05BC
:1050A000A0910F05B09110052FBF08951F920F9288
:1050B0000FB60F9211248F939F93AF93BF9380915C
:1050C0000C05811113C080910D0590910E05A091E2
:1050D0000F05B09110054196A11DB11D80930D05DE
:1050E00090930E05A0930F05B0931005BF91AF915B
:1050F0009F918F910F900FBE0F901F901895209148
:105100006D012223C9F02091110527FF15C0262F1C
:105110002695269526952E31C8F4FC01E20FF11D47
:10512000677081E090E001C0880F6A95EAF780958A
:105130009281892382830895FC010696228162135D
:1051400001C012823196E817F907C1F7089520913E
:105150006D012223C1F02091110527FF14C0262FD5
:105160002695269526952E3130F5FC01E20FF11D8E
:10517000677081E090E001C0880F6A95EAF792813C
:10518000892B82830895FC0132962FEF30E0419104
:10519000641789F02F3F19F4411101C0232F3F5F9D
:1051A0003630A9F72F3F39F0FC01E20FF11D27FD42
:1051B000FA9562830895089520910A0530910B05B0
:1051C0002817390771F090930B0580930A05E09139
:1051D0000805F0910905309721F00084F185E02D54
:1051E000099408952091060530910705281739077D
:1051F00071F09093070580930605E0910805F09102
:105200000905309721F00680F781E02D0994089573
:105210000E94C116811103C0809105050895E09197
:105220000805F0910905309721F00190F081E02DFB
:10523000099480E008950F931F93CF93DF93C42FB9
:10524000D22FFC0182818823C9F0409304050E947B
:105250004A28909303058093020580E28C0F8830E2
:1052600008F057C0C77081E001C0880FCA95EAF7FF
:10527000DF91CF911F910F910C94BB248091040575
:10528000481330C080910205909103050E942F2899
:105290008639910538F510E21D0FCD17B9F080E27F
:1052A0008C0F883040F4C77081E001C0880FCA9528
:1052B000EAF70E94B424183028F581E09D2F9770FA
:1052C00001C0880F9A95EAF70E94BB24802F0E94A4
:1052D000C5241830F0F4D77081E001C0880FDA954A
:1052E000EAF70AC080E28C0F883098F4C77081E03A
:1052F00001C0880FCA95EAF7DF91CF911F910F91F6
:105300000C94B424802FDF91CF911F910F910C94B6
:10531000C524DF91CF911F910F91089580910105D0
:1053200090910005882389F0992369F062E070E08C
:105330008FE595E00E94C02A892B19F08091000525
:105340000895109200059091000581E08927089545
:10535000809101058823F9F00E943E28DC01CB01F1
:10536000805D9A48AF4FBF4F8093FC049093FD043B
:10537000A093FE04B093FF048091000581110BC03F
:1053800062E070E08DE595E00E94C02A892B19F457
:1053900081E080930005809100050895CF93E82F68
:1053A00020915507309156072F54354040914C05B8
:1053B000642F70E0C9010E94BE31481B842FEE2388
:1053C00051F066E00E94EC32C82FC150A8F080E294
:1053D0000E94142AFACFA901480F511D41155240CD
:1053E00018F080E020E030E0280F311D215B3A4FBB
:1053F0003093560720935507CF910895882311F0D5
:10540000FA0101C0FB01099482E00E942B2288234B
:1054100041F083E00E942B22882319F084E00C9451
:10542000B02284E00C945122CF93DF938A3011F4A0
:1054300081E003C08D3029F480E0DF91CF910C949E
:10544000CE29682F809155079091560726E0FC01E0
:10545000AFE4B7E001900D922A95E1F7603E30F09D
:1054600026E0FC0111922A95E9F70AC0F6E06F9F49
:10547000B00111246158794F46E050E00E942E326D
:10548000C0915507D091560746E050E0BE018FE429
:1054900097E00E941233892B49F19E012F54354029
:1054A000A90185E0569547958A95E1F781E090E05E
:1054B000BC0102C0660F771F4A95E2F740914D0587
:1054C00050914E05462B572B2B5F3F4F65E036958D
:1054D00027956A95E1F702C0880F991F2A95E2F790
:1054E000842B952B90934E0580934D059E01295456
:1054F000354040914C05642F70E0C9010E94BE31D7
:10550000481B463010F4240F311D211582E0380766
:1055100010F020E030E0215B3A4F309356072093A3
:105520005507DF91CF910895CF93DF93EC01FE01F2
:105530008491882321F00E94142A2196F8CFDF91CC
:10554000CF9108950E94942A81E00C94CE299091E5
:1055500046059370A1F0811102C0946007C08730A6
:1055600010F0986103C0880F880F982B9093460520
:1055700010926E01809145058160809345050895E4
:10558000EF92FF920F931F93CF93DF93EC017B0178
:1055900064E670E088E70E94F12E8C01EC0EFD1E9F
:1055A000CE15DF0561F017FD0AC0FE01849164E6A7
:1055B00070E00E94722F8C012196892B89F30E9442
:1055C000F62FC801DF91CF911F910F91FF90EF90BF
:1055D0000895FC01AC014C5F5F4F8FEF91E3219187
:1055E000822728E030E087FF03C0880F892701C0A9
:1055F000880F21503109B9F7E417F50781F70895AD
:1056000090914605937071F080934705609348052B
:10561000473908F046E94093490580914505816086
:10562000809345050895EF92FF920F931F93CF93B8
:10563000DF937C018B010E94BF25811119C0E70116
:1056400001151105A1F08091E80085FD0AC0809147
:10565000E8008E778093E8000E94BF25882381F3BD
:1056600007C089918093F10001501109E9CF80E0D2
:10567000DF91CF911F910F91FF90EF9008951F93AD
:10568000CF93DF93CDB7DEB7AA970FB6F894DEBFFE
:105690000FBECDBFEDE3F5E085E495E02091F1008C
:1056A00021938E179F07D1F780913E05833009F42F
:1056B00061C030F4813071F0823009F49BC0B2C017
:1056C0008A3009F487C08B3009F46CC0893009F046
:1056D000A9C020C080913D05813A09F0A3C0809106
:1056E000E800877F8093E800809141059091420512
:1056F000892B21F460E289E195E003C060E080E05D
:1057000090E070E00E947E278091E8008B77809384
:10571000E80088C080913D05813209F083C0809106
:10572000410590914205029708F07CC08091E80005
:10573000877F8093E8008091E80082FD05C080911A
:105740003B058111F8CF6EC02091F3008091F200EB
:1057500090E0922B029731F48091F100813011F0AA
:10576000863021F48091F100809318058091E80043
:105770008B7754C080913D05813A09F053C08091E8
:10578000410590914205892B09F04CC08091E800B9
:10579000877F8093E8008091E80080FFFCCF8091B4
:1057A0006D0137C080913D058132E1F58091410561
:1057B00090914205892BB1F58091E800877F809315
:1057C000E8000E94F22580913F0580936D010E94C0
:1057D0009F2428C080913D05813221F58091E80009
:1057E000877F8093E8000E94F22580914005809396
:1057F000170518C080913D05813AA1F48091E80019
:10580000877F8093E8008091E80080FFFCCF809143
:1058100017058093F1008091E8008E778093E8006F
:105820000E94F2258091E80083FFCEC180913D0562
:1058300090913E05492F50E04A30510508F0C4C10F
:10584000FA01EE59FF4F0C940C33803821F0823866
:1058500009F0BAC108C08091390590913A059923A1
:1058600089F082600FC0809141058F70873008F009
:10587000ABC18093E9008091EB0085FB882780F91C
:105880001092E9009091E800977F9093E800809350
:10589000F1001092F10065C1282F2D7F09F094C10D
:1058A000882319F0823061F08FC180913F058130EB
:1058B00009F08AC1933009F080E080933A052EC048
:1058C00080913F0581112AC0809141058F702FEF93
:1058D000280F263008F078C18093E9002091EB0072
:1058E00020FF1CC0933021F48091EB00806214C033
:1058F0009091EB0090619093EB0021E030E0A901E2
:1059000002C0440F551F8A95E2F74093EA001092B7
:10591000EA008091EB0088608093EB001092E90030
:105920008091E800877F20C181114EC110913F0511
:105930001F778091E3008078812B8093E300809132
:10594000E800877F8093E8000E94F2258091E800BC
:1059500080FFFCCF8091E30080688093E300111109
:1059600002C082E001C083E080933B052DC18058D6
:10597000823008F029C180913F05909140058C3D0F
:1059800053E0950779F583E08A838AE289834FB7EC
:10599000F894DE01139620E03EE051E2E32FF0E0C0
:1059A00050935700E49120FF03C0E295EF703F5FF2
:1059B000EF708E2F90E0EA3010F0C79601C0C096CD
:1059C0008D939D932F5F243149F74FBF8091E8005D
:1059D000877F8093E8006AE270E0CE0101960E9422
:1059E0007E27AEC04091410550914205292F3327B3
:1059F00023303105A9F068F42130310509F4F3C0F2
:105A00002230310509F0E0C08BE390E0EEE0F6E0F3
:105A100044C02132310521F12232310571F1D4C067
:105A2000992781309105A1F058F0029709F0CCC078
:105A3000EBE5F6E0E4918E2F90E0EBE5F6E02AC08E
:105A4000EBE7F6E0E4918E2F90E0EBE7F6E022C082
:105A5000E9E6F6E0E4918E2F90E0E9E6F6E01AC080
:105A60004115510509F4C4C04130510509F0ACC0DD
:105A700089E090E0E9E3F6E010C04115510509F432
:105A8000BCC04130510509F09FC08DE690E0E1E6D1
:105A9000F5E003C0009709F497C02091E800277F44
:105AA0002093E80020914305309144058217930725
:105AB00008F49C0140E02115310589F180913B05F6
:105AC000882309F43DC08530D9F18091E80083FD39
:105AD00037C08091E80082FD2FC08091E80080FFF0
